{
  "_format": "hh-sol-artifact-1",
  "contractName": "DeediscoMinikit",
  "sourceName": "contracts/DeediscoMinikit.sol",
  "abi": [
    {
      "inputs": [
        {
          "internalType": "string",
          "name": "baseURI",
          "type": "string"
        }
      ],
      "stateMutability": "nonpayable",
      "type": "constructor"
    },
    {
      "inputs": [
        {
          "internalType": "address",
          "name": "sender",
          "type": "address"
        },
        {
          "internalType": "uint256",
          "name": "tokenId",
          "type": "uint256"
        },
        {
          "internalType": "address",
          "name": "owner",
          "type": "address"
        }
      ],
      "name": "ERC721IncorrectOwner",
      "type": "error"
    },
    {
      "inputs": [
        {
          "internalType": "address",
          "name": "operator",
          "type": "address"
        },
        {
          "internalType": "uint256",
          "name": "tokenId",
          "type": "uint256"
        }
      ],
      "name": "ERC721InsufficientApproval",
      "type": "error"
    },
    {
      "inputs": [
        {
          "internalType": "address",
          "name": "approver",
          "type": "address"
        }
      ],
      "name": "ERC721InvalidApprover",
      "type": "error"
    },
    {
      "inputs": [
        {
          "internalType": "address",
          "name": "operator",
          "type": "address"
        }
      ],
      "name": "ERC721InvalidOperator",
      "type": "error"
    },
    {
      "inputs": [
        {
          "internalType": "address",
          "name": "owner",
          "type": "address"
        }
      ],
      "name": "ERC721InvalidOwner",
      "type": "error"
    },
    {
      "inputs": [
        {
          "internalType": "address",
          "name": "receiver",
          "type": "address"
        }
      ],
      "name": "ERC721InvalidReceiver",
      "type": "error"
    },
    {
      "inputs": [
        {
          "internalType": "address",
          "name": "sender",
          "type": "address"
        }
      ],
      "name": "ERC721InvalidSender",
      "type": "error"
    },
    {
      "inputs": [
        {
          "internalType": "uint256",
          "name": "tokenId",
          "type": "uint256"
        }
      ],
      "name": "ERC721NonexistentToken",
      "type": "error"
    },
    {
      "inputs": [
        {
          "internalType": "address",
          "name": "owner",
          "type": "address"
        }
      ],
      "name": "OwnableInvalidOwner",
      "type": "error"
    },
    {
      "inputs": [
        {
          "internalType": "address",
          "name": "account",
          "type": "address"
        }
      ],
      "name": "OwnableUnauthorizedAccount",
      "type": "error"
    },
    {
      "anonymous": false,
      "inputs": [
        {
          "indexed": true,
          "internalType": "address",
          "name": "owner",
          "type": "address"
        },
        {
          "indexed": true,
          "internalType": "address",
          "name": "approved",
          "type": "address"
        },
        {
          "indexed": true,
          "internalType": "uint256",
          "name": "tokenId",
          "type": "uint256"
        }
      ],
      "name": "Approval",
      "type": "event"
    },
    {
      "anonymous": false,
      "inputs": [
        {
          "indexed": true,
          "internalType": "address",
          "name": "owner",
          "type": "address"
        },
        {
          "indexed": true,
          "internalType": "address",
          "name": "operator",
          "type": "address"
        },
        {
          "indexed": false,
          "internalType": "bool",
          "name": "approved",
          "type": "bool"
        }
      ],
      "name": "ApprovalForAll",
      "type": "event"
    },
    {
      "anonymous": false,
      "inputs": [
        {
          "indexed": true,
          "internalType": "address",
          "name": "previousOwner",
          "type": "address"
        },
        {
          "indexed": true,
          "internalType": "address",
          "name": "newOwner",
          "type": "address"
        }
      ],
      "name": "OwnershipTransferred",
      "type": "event"
    },
    {
      "anonymous": false,
      "inputs": [
        {
          "indexed": true,
          "internalType": "address",
          "name": "from",
          "type": "address"
        },
        {
          "indexed": true,
          "internalType": "address",
          "name": "to",
          "type": "address"
        },
        {
          "indexed": true,
          "internalType": "uint256",
          "name": "tokenId",
          "type": "uint256"
        }
      ],
      "name": "Transfer",
      "type": "event"
    },
    {
      "inputs": [],
      "name": "MINT_PRICE",
      "outputs": [
        {
          "internalType": "uint256",
          "name": "",
          "type": "uint256"
        }
      ],
      "stateMutability": "view",
      "type": "function"
    },
    {
      "inputs": [
        {
          "internalType": "address",
          "name": "to",
          "type": "address"
        },
        {
          "internalType": "uint256",
          "name": "tokenId",
          "type": "uint256"
        }
      ],
      "name": "approve",
      "outputs": [],
      "stateMutability": "nonpayable",
      "type": "function"
    },
    {
      "inputs": [
        {
          "internalType": "address",
          "name": "owner",
          "type": "address"
        }
      ],
      "name": "balanceOf",
      "outputs": [
        {
          "internalType": "uint256",
          "name": "",
          "type": "uint256"
        }
      ],
      "stateMutability": "view",
      "type": "function"
    },
    {
      "inputs": [
        {
          "internalType": "uint256",
          "name": "tokenId",
          "type": "uint256"
        }
      ],
      "name": "getApproved",
      "outputs": [
        {
          "internalType": "address",
          "name": "",
          "type": "address"
        }
      ],
      "stateMutability": "view",
      "type": "function"
    },
    {
      "inputs": [
        {
          "internalType": "address",
          "name": "owner",
          "type": "address"
        },
        {
          "internalType": "address",
          "name": "operator",
          "type": "address"
        }
      ],
      "name": "isApprovedForAll",
      "outputs": [
        {
          "internalType": "bool",
          "name": "",
          "type": "bool"
        }
      ],
      "stateMutability": "view",
      "type": "function"
    },
    {
      "inputs": [
        {
          "internalType": "address",
          "name": "to",
          "type": "address"
        },
        {
          "internalType": "uint256",
          "name": "quantity",
          "type": "uint256"
        }
      ],
      "name": "mintPack",
      "outputs": [
        {
          "internalType": "uint256[]",
          "name": "",
          "type": "uint256[]"
        }
      ],
      "stateMutability": "payable",
      "type": "function"
    },
    {
      "inputs": [],
      "name": "name",
      "outputs": [
        {
          "internalType": "string",
          "name": "",
          "type": "string"
        }
      ],
      "stateMutability": "view",
      "type": "function"
    },
    {
      "inputs": [],
      "name": "owner",
      "outputs": [
        {
          "internalType": "address",
          "name": "",
          "type": "address"
        }
      ],
      "stateMutability": "view",
      "type": "function"
    },
    {
      "inputs": [
        {
          "internalType": "uint256",
          "name": "tokenId",
          "type": "uint256"
        }
      ],
      "name": "ownerOf",
      "outputs": [
        {
          "internalType": "address",
          "name": "",
          "type": "address"
        }
      ],
      "stateMutability": "view",
      "type": "function"
    },
    {
      "inputs": [],
      "name": "renounceOwnership",
      "outputs": [],
      "stateMutability": "nonpayable",
      "type": "function"
    },
    {
      "inputs": [
        {
          "internalType": "address",
          "name": "from",
          "type": "address"
        },
        {
          "internalType": "address",
          "name": "to",
          "type": "address"
        },
        {
          "internalType": "uint256",
          "name": "tokenId",
          "type": "uint256"
        }
      ],
      "name": "safeTransferFrom",
      "outputs": [],
      "stateMutability": "nonpayable",
      "type": "function"
    },
    {
      "inputs": [
        {
          "internalType": "address",
          "name": "from",
          "type": "address"
        },
        {
          "internalType": "address",
          "name": "to",
          "type": "address"
        },
        {
          "internalType": "uint256",
          "name": "tokenId",
          "type": "uint256"
        },
        {
          "internalType": "bytes",
          "name": "data",
          "type": "bytes"
        }
      ],
      "name": "safeTransferFrom",
      "outputs": [],
      "stateMutability": "nonpayable",
      "type": "function"
    },
    {
      "inputs": [
        {
          "internalType": "address",
          "name": "operator",
          "type": "address"
        },
        {
          "internalType": "bool",
          "name": "approved",
          "type": "bool"
        }
      ],
      "name": "setApprovalForAll",
      "outputs": [],
      "stateMutability": "nonpayable",
      "type": "function"
    },
    {
      "inputs": [
        {
          "internalType": "bytes4",
          "name": "interfaceId",
          "type": "bytes4"
        }
      ],
      "name": "supportsInterface",
      "outputs": [
        {
          "internalType": "bool",
          "name": "",
          "type": "bool"
        }
      ],
      "stateMutability": "view",
      "type": "function"
    },
    {
      "inputs": [],
      "name": "symbol",
      "outputs": [
        {
          "internalType": "string",
          "name": "",
          "type": "string"
        }
      ],
      "stateMutability": "view",
      "type": "function"
    },
    {
      "inputs": [
        {
          "internalType": "uint256",
          "name": "tokenId",
          "type": "uint256"
        }
      ],
      "name": "tokenURI",
      "outputs": [
        {
          "internalType": "string",
          "name": "",
          "type": "string"
        }
      ],
      "stateMutability": "view",
      "type": "function"
    },
    {
      "inputs": [],
      "name": "totalSupply",
      "outputs": [
        {
          "internalType": "uint256",
          "name": "",
          "type": "uint256"
        }
      ],
      "stateMutability": "view",
      "type": "function"
    },
    {
      "inputs": [
        {
          "internalType": "address",
          "name": "from",
          "type": "address"
        },
        {
          "internalType": "address",
          "name": "to",
          "type": "address"
        },
        {
          "internalType": "uint256",
          "name": "tokenId",
          "type": "uint256"
        }
      ],
      "name": "transferFrom",
      "outputs": [],
      "stateMutability": "nonpayable",
      "type": "function"
    },
    {
      "inputs": [
        {
          "internalType": "address",
          "name": "newOwner",
          "type": "address"
        }
      ],
      "name": "transferOwnership",
      "outputs": [],
      "stateMutability": "nonpayable",
      "type": "function"
    },
    {
      "inputs": [],
      "name": "withdraw",
      "outputs": [],
      "stateMutability": "nonpayable",
      "type": "function"
    }
  ],
  "bytecode": "0x60806040523480156200001157600080fd5b5060405162002e2538038062002e258339818101604052810190620000379190620003c3565b336040518060400160405280601681526020017f446565646973636f204d696e696b6974204361726473000000000000000000008152506040518060400160405280600381526020017f444d4300000000000000000000000000000000000000000000000000000000008152508160009081620000b591906200065f565b508060019081620000c791906200065f565b505050600073ffffffffffffffffffffffffffffffffffffffff168173ffffffffffffffffffffffffffffffffffffffff16036200013f5760006040517f1e4fbdf70000000000000000000000000000000000000000000000000000000081526004016200013691906200078b565b60405180910390fd5b62000150816200016a60201b60201c565b5080600890816200016291906200065f565b5050620007a8565b6000600660009054906101000a900473ffffffffffffffffffffffffffffffffffffffff16905081600660006101000a81548173ffffffffffffffffffffffffffffffffffffffff021916908373ffffffffffffffffffffffffffffffffffffffff1602179055508173ffffffffffffffffffffffffffffffffffffffff168173ffffffffffffffffffffffffffffffffffffffff167f8be0079c531659141344cd1fd0a4f28419497f9722a3daafe3b4186f6b6457e060405160405180910390a35050565b6000604051905090565b600080fd5b600080fd5b600080fd5b600080fd5b6000601f19601f8301169050919050565b7f4e487b7100000000000000000000000000000000000000000000000000000000600052604160045260246000fd5b62000299826200024e565b810181811067ffffffffffffffff82111715620002bb57620002ba6200025f565b5b80604052505050565b6000620002d062000230565b9050620002de82826200028e565b919050565b600067ffffffffffffffff8211156200030157620003006200025f565b5b6200030c826200024e565b9050602081019050919050565b60005b83811015620003395780820151818401526020810190506200031c565b60008484015250505050565b60006200035c6200035684620002e3565b620002c4565b9050828152602081018484840111156200037b576200037a62000249565b5b6200038884828562000319565b509392505050565b600082601f830112620003a857620003a762000244565b5b8151620003ba84826020860162000345565b91505092915050565b600060208284031215620003dc57620003db6200023a565b5b600082015167ffffffffffffffff811115620003fd57620003fc6200023f565b5b6200040b8482850162000390565b91505092915050565b600081519050919050565b7f4e487b7100000000000000000000000000000000000000000000000000000000600052602260045260246000fd5b600060028204905060018216806200046757607f821691505b6020821081036200047d576200047c6200041f565b5b50919050565b60008190508160005260206000209050919050565b60006020601f8301049050919050565b600082821b905092915050565b600060088302620004e77fffffffffffffffffffffffffffffffffffffffffffffffffffffffffffffffff82620004a8565b620004f38683620004a8565b95508019841693508086168417925050509392505050565b6000819050919050565b6000819050919050565b6000620005406200053a62000534846200050b565b62000515565b6200050b565b9050919050565b6000819050919050565b6200055c836200051f565b620005746200056b8262000547565b848454620004b5565b825550505050565b600090565b6200058b6200057c565b6200059881848462000551565b505050565b5b81811015620005c057620005b460008262000581565b6001810190506200059e565b5050565b601f8211156200060f57620005d98162000483565b620005e48462000498565b81016020851015620005f4578190505b6200060c620006038562000498565b8301826200059d565b50505b505050565b600082821c905092915050565b6000620006346000198460080262000614565b1980831691505092915050565b60006200064f838362000621565b9150826002028217905092915050565b6200066a8262000414565b67ffffffffffffffff8111156200068657620006856200025f565b5b6200069282546200044e565b6200069f828285620005c4565b600060209050601f831160018114620006d75760008415620006c2578287015190505b620006ce858262000641565b8655506200073e565b601f198416620006e78662000483565b60005b828110156200071157848901518255600182019150602085019450602081019050620006ea565b868310156200073157848901516200072d601f89168262000621565b8355505b6001600288020188555050505b505050505050565b600073ffffffffffffffffffffffffffffffffffffffff82169050919050565b6000620007738262000746565b9050919050565b620007858162000766565b82525050565b6000602082019050620007a260008301846200077a565b92915050565b61266d80620007b86000396000f3fe60806040526004361061011f5760003560e01c8063715018a6116100a0578063b88d4fde11610064578063b88d4fde146103c6578063c002d23d146103ef578063c87b56dd1461041a578063e985e9c514610457578063f2fde38b146104945761011f565b8063715018a6146103005780638da5cb5b14610317578063952ea94f1461034257806395d89b4114610372578063a22cb4651461039d5761011f565b806323b872dd116100e757806323b872dd1461021d5780633ccfd60b1461024657806342842e0e1461025d5780636352211e1461028657806370a08231146102c35761011f565b806301ffc9a71461012457806306fdde0314610161578063081812fc1461018c578063095ea7b3146101c957806318160ddd146101f2575b600080fd5b34801561013057600080fd5b5061014b60048036038101906101469190611c59565b6104bd565b6040516101589190611ca1565b60405180910390f35b34801561016d57600080fd5b5061017661059f565b6040516101839190611d4c565b60405180910390f35b34801561019857600080fd5b506101b360048036038101906101ae9190611da4565b610631565b6040516101c09190611e12565b60405180910390f35b3480156101d557600080fd5b506101f060048036038101906101eb9190611e59565b61064d565b005b3480156101fe57600080fd5b50610207610663565b6040516102149190611ea8565b60405180910390f35b34801561022957600080fd5b50610244600480360381019061023f9190611ec3565b61066d565b005b34801561025257600080fd5b5061025b61076f565b005b34801561026957600080fd5b50610284600480360381019061027f9190611ec3565b6107c7565b005b34801561029257600080fd5b506102ad60048036038101906102a89190611da4565b6107e7565b6040516102ba9190611e12565b60405180910390f35b3480156102cf57600080fd5b506102ea60048036038101906102e59190611f16565b6107f9565b6040516102f79190611ea8565b60405180910390f35b34801561030c57600080fd5b506103156108b3565b005b34801561032357600080fd5b5061032c6108c7565b6040516103399190611e12565b60405180910390f35b61035c60048036038101906103579190611e59565b6108f1565b6040516103699190612001565b60405180910390f35b34801561037e57600080fd5b50610387610a4d565b6040516103949190611d4c565b60405180910390f35b3480156103a957600080fd5b506103c460048036038101906103bf919061204f565b610adf565b005b3480156103d257600080fd5b506103ed60048036038101906103e891906121c4565b610af5565b005b3480156103fb57600080fd5b50610404610b1a565b6040516104119190611ea8565b60405180910390f35b34801561042657600080fd5b50610441600480360381019061043c9190611da4565b610b25565b60405161044e9190611d4c565b60405180910390f35b34801561046357600080fd5b5061047e60048036038101906104799190612247565b610b8e565b60405161048b9190611ca1565b60405180910390f35b3480156104a057600080fd5b506104bb60048036038101906104b69190611f16565b610c22565b005b60007f80ac58cd000000000000000000000000000000000000000000000000000000007bffffffffffffffffffffffffffffffffffffffffffffffffffffffff1916827bffffffffffffffffffffffffffffffffffffffffffffffffffffffff1916148061058857507f5b5e139f000000000000000000000000000000000000000000000000000000007bffffffffffffffffffffffffffffffffffffffffffffffffffffffff1916827bffffffffffffffffffffffffffffffffffffffffffffffffffffffff1916145b80610598575061059782610ca8565b5b9050919050565b6060600080546105ae906122b6565b80601f01602080910402602001604051908101604052809291908181526020018280546105da906122b6565b80156106275780601f106105fc57610100808354040283529160200191610627565b820191906000526020600020905b81548152906001019060200180831161060a57829003601f168201915b5050505050905090565b600061063c82610d12565b5061064682610d9a565b9050919050565b61065f828261065a610dd7565b610ddf565b5050565b6000600754905090565b600073ffffffffffffffffffffffffffffffffffffffff168273ffffffffffffffffffffffffffffffffffffffff16036106df5760006040517f64a0ae920000000000000000000000000000000000000000000000000000000081526004016106d69190611e12565b60405180910390fd5b60006106f383836106ee610dd7565b610df1565b90508373ffffffffffffffffffffffffffffffffffffffff168173ffffffffffffffffffffffffffffffffffffffff1614610769578382826040517f64283d7b000000000000000000000000000000000000000000000000000000008152600401610760939291906122e7565b60405180910390fd5b50505050565b61077761100b565b61077f6108c7565b73ffffffffffffffffffffffffffffffffffffffff166108fc479081150290604051600060405180830381858888f193505050501580156107c4573d6000803e3d6000fd5b50565b6107e283838360405180602001604052806000815250610af5565b505050565b60006107f282610d12565b9050919050565b60008073ffffffffffffffffffffffffffffffffffffffff168273ffffffffffffffffffffffffffffffffffffffff160361086c5760006040517f89c62b640000000000000000000000000000000000000000000000000000000081526004016108639190611e12565b60405180910390fd5b600360008373ffffffffffffffffffffffffffffffffffffffff1673ffffffffffffffffffffffffffffffffffffffff168152602001908152602001600020549050919050565b6108bb61100b565b6108c56000611092565b565b6000600660009054906101000a900473ffffffffffffffffffffffffffffffffffffffff16905090565b60606000821180156109045750600a8211155b610943576040517f08c379a000000000000000000000000000000000000000000000000000000000815260040161093a9061236a565b60405180910390fd5b66038d7ea4c6800034101561098d576040517f08c379a0000000000000000000000000000000000000000000000000000000008152600401610984906123d6565b60405180910390fd5b60008267ffffffffffffffff8111156109a9576109a8612099565b5b6040519080825280602002602001820160405280156109d75781602001602082028036833780820191505090505b50905060005b83811015610a4257600760008154809291906109f890612425565b919050555060006007549050610a0e8682611158565b80838381518110610a2257610a2161246d565b5b602002602001018181525050508080610a3a90612425565b9150506109dd565b508091505092915050565b606060018054610a5c906122b6565b80601f0160208091040260200160405190810160405280929190818152602001828054610a88906122b6565b8015610ad55780601f10610aaa57610100808354040283529160200191610ad5565b820191906000526020600020905b815481529060010190602001808311610ab857829003601f168201915b5050505050905090565b610af1610aea610dd7565b8383611176565b5050565b610b0084848461066d565b610b14610b0b610dd7565b858585856112e5565b50505050565b66038d7ea4c6800081565b6060610b3082610d12565b506000610b3b611496565b90506000815111610b5b5760405180602001604052806000815250610b86565b80610b6584611528565b604051602001610b769291906124d8565b6040516020818303038152906040525b915050919050565b6000600560008473ffffffffffffffffffffffffffffffffffffffff1673ffffffffffffffffffffffffffffffffffffffff16815260200190815260200160002060008373ffffffffffffffffffffffffffffffffffffffff1673ffffffffffffffffffffffffffffffffffffffff16815260200190815260200160002060009054906101000a900460ff16905092915050565b610c2a61100b565b600073ffffffffffffffffffffffffffffffffffffffff168173ffffffffffffffffffffffffffffffffffffffff1603610c9c5760006040517f1e4fbdf7000000000000000000000000000000000000000000000000000000008152600401610c939190611e12565b60405180910390fd5b610ca581611092565b50565b60007f01ffc9a7000000000000000000000000000000000000000000000000000000007bffffffffffffffffffffffffffffffffffffffffffffffffffffffff1916827bffffffffffffffffffffffffffffffffffffffffffffffffffffffff1916149050919050565b600080610d1e836115f6565b9050600073ffffffffffffffffffffffffffffffffffffffff168173ffffffffffffffffffffffffffffffffffffffff1603610d9157826040517f7e273289000000000000000000000000000000000000000000000000000000008152600401610d889190611ea8565b60405180910390fd5b80915050919050565b60006004600083815260200190815260200160002060009054906101000a900473ffffffffffffffffffffffffffffffffffffffff169050919050565b600033905090565b610dec8383836001611633565b505050565b600080610dfd846115f6565b9050600073ffffffffffffffffffffffffffffffffffffffff168373ffffffffffffffffffffffffffffffffffffffff1614610e3f57610e3e8184866117f8565b5b600073ffffffffffffffffffffffffffffffffffffffff168173ffffffffffffffffffffffffffffffffffffffff1614610ed057610e81600085600080611633565b6001600360008373ffffffffffffffffffffffffffffffffffffffff1673ffffffffffffffffffffffffffffffffffffffff168152602001908152602001600020600082825403925050819055505b600073ffffffffffffffffffffffffffffffffffffffff168573ffffffffffffffffffffffffffffffffffffffff1614610f53576001600360008773ffffffffffffffffffffffffffffffffffffffff1673ffffffffffffffffffffffffffffffffffffffff168152602001908152602001600020600082825401925050819055505b846002600086815260200190815260200160002060006101000a81548173ffffffffffffffffffffffffffffffffffffffff021916908373ffffffffffffffffffffffffffffffffffffffff160217905550838573ffffffffffffffffffffffffffffffffffffffff168273ffffffffffffffffffffffffffffffffffffffff167fddf252ad1be2c89b69c2b068fc378daa952ba7f163c4a11628f55a4df523b3ef60405160405180910390a4809150509392505050565b611013610dd7565b73ffffffffffffffffffffffffffffffffffffffff166110316108c7565b73ffffffffffffffffffffffffffffffffffffffff161461109057611054610dd7565b6040517f118cdaa70000000000000000000000000000000000000000000000000000000081526004016110879190611e12565b60405180910390fd5b565b6000600660009054906101000a900473ffffffffffffffffffffffffffffffffffffffff16905081600660006101000a81548173ffffffffffffffffffffffffffffffffffffffff021916908373ffffffffffffffffffffffffffffffffffffffff1602179055508173ffffffffffffffffffffffffffffffffffffffff168173ffffffffffffffffffffffffffffffffffffffff167f8be0079c531659141344cd1fd0a4f28419497f9722a3daafe3b4186f6b6457e060405160405180910390a35050565b6111728282604051806020016040528060008152506118bc565b5050565b600073ffffffffffffffffffffffffffffffffffffffff168273ffffffffffffffffffffffffffffffffffffffff16036111e757816040517f5b08ba180000000000000000000000000000000000000000000000000000000081526004016111de9190611e12565b60405180910390fd5b80600560008573ffffffffffffffffffffffffffffffffffffffff1673ffffffffffffffffffffffffffffffffffffffff16815260200190815260200160002060008473ffffffffffffffffffffffffffffffffffffffff1673ffffffffffffffffffffffffffffffffffffffff16815260200190815260200160002060006101000a81548160ff0219169083151502179055508173ffffffffffffffffffffffffffffffffffffffff168373ffffffffffffffffffffffffffffffffffffffff167f17307eab39ab6107e8899845ad3d59bd9653f200f220920489ca2b5937696c31836040516112d89190611ca1565b60405180910390a3505050565b60008373ffffffffffffffffffffffffffffffffffffffff163b111561148f578273ffffffffffffffffffffffffffffffffffffffff1663150b7a02868685856040518563ffffffff1660e01b81526004016113449493929190612551565b6020604051808303816000875af192505050801561138057506040513d601f19601f8201168201806040525081019061137d91906125b2565b60015b611404573d80600081146113b0576040519150601f19603f3d011682016040523d82523d6000602084013e6113b5565b606091505b5060008151036113fc57836040517f64a0ae920000000000000000000000000000000000000000000000000000000081526004016113f39190611e12565b60405180910390fd5b805160208201fd5b63150b7a0260e01b7bffffffffffffffffffffffffffffffffffffffffffffffffffffffff1916817bffffffffffffffffffffffffffffffffffffffffffffffffffffffff19161461148d57836040517f64a0ae920000000000000000000000000000000000000000000000000000000081526004016114849190611e12565b60405180910390fd5b505b5050505050565b6060600880546114a5906122b6565b80601f01602080910402602001604051908101604052809291908181526020018280546114d1906122b6565b801561151e5780601f106114f35761010080835404028352916020019161151e565b820191906000526020600020905b81548152906001019060200180831161150157829003601f168201915b5050505050905090565b606060006001611537846118e0565b01905060008167ffffffffffffffff81111561155657611555612099565b5b6040519080825280601f01601f1916602001820160405280156115885781602001600182028036833780820191505090505b509050600082602083010190505b6001156115eb578080600190039150507f3031323334353637383961626364656600000000000000000000000000000000600a86061a8153600a85816115df576115de6125df565b5b04945060008503611596575b819350505050919050565b60006002600083815260200190815260200160002060009054906101000a900473ffffffffffffffffffffffffffffffffffffffff169050919050565b808061166c5750600073ffffffffffffffffffffffffffffffffffffffff168273ffffffffffffffffffffffffffffffffffffffff1614155b156117a057600061167c84610d12565b9050600073ffffffffffffffffffffffffffffffffffffffff168373ffffffffffffffffffffffffffffffffffffffff16141580156116e757508273ffffffffffffffffffffffffffffffffffffffff168173ffffffffffffffffffffffffffffffffffffffff1614155b80156116fa57506116f88184610b8e565b155b1561173c57826040517fa9fbf51f0000000000000000000000000000000000000000000000000000000081526004016117339190611e12565b60405180910390fd5b811561179e57838573ffffffffffffffffffffffffffffffffffffffff168273ffffffffffffffffffffffffffffffffffffffff167f8c5be1e5ebec7d5bd14f71427d1e84f3dd0314c0f7b2291e5b200ac8c7c3b92560405160405180910390a45b505b836004600085815260200190815260200160002060006101000a81548173ffffffffffffffffffffffffffffffffffffffff021916908373ffffffffffffffffffffffffffffffffffffffff16021790555050505050565b611803838383611a33565b6118b757600073ffffffffffffffffffffffffffffffffffffffff168373ffffffffffffffffffffffffffffffffffffffff160361187857806040517f7e27328900000000000000000000000000000000000000000000000000000000815260040161186f9190611ea8565b60405180910390fd5b81816040517f177e802f0000000000000000000000000000000000000000000000000000000081526004016118ae92919061260e565b60405180910390fd5b505050565b6118c68383611af4565b6118db6118d1610dd7565b60008585856112e5565b505050565b600080600090507a184f03e93ff9f4daa797ed6e38ed64bf6a1f010000000000000000831061193e577a184f03e93ff9f4daa797ed6e38ed64bf6a1f0100000000000000008381611934576119336125df565b5b0492506040810190505b6d04ee2d6d415b85acef8100000000831061197b576d04ee2d6d415b85acef81000000008381611971576119706125df565b5b0492506020810190505b662386f26fc1000083106119aa57662386f26fc1000083816119a05761199f6125df565b5b0492506010810190505b6305f5e10083106119d3576305f5e10083816119c9576119c86125df565b5b0492506008810190505b61271083106119f85761271083816119ee576119ed6125df565b5b0492506004810190505b60648310611a1b5760648381611a1157611a106125df565b5b0492506002810190505b600a8310611a2a576001810190505b80915050919050565b60008073ffffffffffffffffffffffffffffffffffffffff168373ffffffffffffffffffffffffffffffffffffffff1614158015611aeb57508273ffffffffffffffffffffffffffffffffffffffff168473ffffffffffffffffffffffffffffffffffffffff161480611aac5750611aab8484610b8e565b5b80611aea57508273ffffffffffffffffffffffffffffffffffffffff16611ad283610d9a565b73ffffffffffffffffffffffffffffffffffffffff16145b5b90509392505050565b600073ffffffffffffffffffffffffffffffffffffffff168273ffffffffffffffffffffffffffffffffffffffff1603611b665760006040517f64a0ae92000000000000000000000000000000000000000000000000000000008152600401611b5d9190611e12565b60405180910390fd5b6000611b7483836000610df1565b9050600073ffffffffffffffffffffffffffffffffffffffff168173ffffffffffffffffffffffffffffffffffffffff1614611be85760006040517f73c6ac6e000000000000000000000000000000000000000000000000000000008152600401611bdf9190611e12565b60405180910390fd5b505050565b6000604051905090565b600080fd5b600080fd5b60007fffffffff0000000000000000000000000000000000000000000000000000000082169050919050565b611c3681611c01565b8114611c4157600080fd5b50565b600081359050611c5381611c2d565b92915050565b600060208284031215611c6f57611c6e611bf7565b5b6000611c7d84828501611c44565b91505092915050565b60008115159050919050565b611c9b81611c86565b82525050565b6000602082019050611cb66000830184611c92565b92915050565b600081519050919050565b600082825260208201905092915050565b60005b83811015611cf6578082015181840152602081019050611cdb565b60008484015250505050565b6000601f19601f8301169050919050565b6000611d1e82611cbc565b611d288185611cc7565b9350611d38818560208601611cd8565b611d4181611d02565b840191505092915050565b60006020820190508181036000830152611d668184611d13565b905092915050565b6000819050919050565b611d8181611d6e565b8114611d8c57600080fd5b50565b600081359050611d9e81611d78565b92915050565b600060208284031215611dba57611db9611bf7565b5b6000611dc884828501611d8f565b91505092915050565b600073ffffffffffffffffffffffffffffffffffffffff82169050919050565b6000611dfc82611dd1565b9050919050565b611e0c81611df1565b82525050565b6000602082019050611e276000830184611e03565b92915050565b611e3681611df1565b8114611e4157600080fd5b50565b600081359050611e5381611e2d565b92915050565b60008060408385031215611e7057611e6f611bf7565b5b6000611e7e85828601611e44565b9250506020611e8f85828601611d8f565b9150509250929050565b611ea281611d6e565b82525050565b6000602082019050611ebd6000830184611e99565b92915050565b600080600060608486031215611edc57611edb611bf7565b5b6000611eea86828701611e44565b9350506020611efb86828701611e44565b9250506040611f0c86828701611d8f565b9150509250925092565b600060208284031215611f2c57611f2b611bf7565b5b6000611f3a84828501611e44565b91505092915050565b600081519050919050565b600082825260208201905092915050565b6000819050602082019050919050565b611f7881611d6e565b82525050565b6000611f8a8383611f6f565b60208301905092915050565b6000602082019050919050565b6000611fae82611f43565b611fb88185611f4e565b9350611fc383611f5f565b8060005b83811015611ff4578151611fdb8882611f7e565b9750611fe683611f96565b925050600181019050611fc7565b5085935050505092915050565b6000602082019050818103600083015261201b8184611fa3565b905092915050565b61202c81611c86565b811461203757600080fd5b50565b60008135905061204981612023565b92915050565b6000806040838503121561206657612065611bf7565b5b600061207485828601611e44565b92505060206120858582860161203a565b9150509250929050565b600080fd5b600080fd5b7f4e487b7100000000000000000000000000000000000000000000000000000000600052604160045260246000fd5b6120d182611d02565b810181811067ffffffffffffffff821117156120f0576120ef612099565b5b80604052505050565b6000612103611bed565b905061210f82826120c8565b919050565b600067ffffffffffffffff82111561212f5761212e612099565b5b61213882611d02565b9050602081019050919050565b82818337600083830152505050565b600061216761216284612114565b6120f9565b90508281526020810184848401111561218357612182612094565b5b61218e848285612145565b509392505050565b600082601f8301126121ab576121aa61208f565b5b81356121bb848260208601612154565b91505092915050565b600080600080608085870312156121de576121dd611bf7565b5b60006121ec87828801611e44565b94505060206121fd87828801611e44565b935050604061220e87828801611d8f565b925050606085013567ffffffffffffffff81111561222f5761222e611bfc565b5b61223b87828801612196565b91505092959194509250565b6000806040838503121561225e5761225d611bf7565b5b600061226c85828601611e44565b925050602061227d85828601611e44565b9150509250929050565b7f4e487b7100000000000000000000000000000000000000000000000000000000600052602260045260246000fd5b600060028204905060018216806122ce57607f821691505b6020821081036122e1576122e0612287565b5b50919050565b60006060820190506122fc6000830186611e03565b6123096020830185611e99565b6123166040830184611e03565b949350505050565b7f496e76616c6964207175616e7469747900000000000000000000000000000000600082015250565b6000612354601083611cc7565b915061235f8261231e565b602082019050919050565b6000602082019050818103600083015261238381612347565b9050919050565b7f496e73756666696369656e74207061796d656e74000000000000000000000000600082015250565b60006123c0601483611cc7565b91506123cb8261238a565b602082019050919050565b600060208201905081810360008301526123ef816123b3565b9050919050565b7f4e487b7100000000000000000000000000000000000000000000000000000000600052601160045260246000fd5b600061243082611d6e565b91507fffffffffffffffffffffffffffffffffffffffffffffffffffffffffffffffff8203612462576124616123f6565b5b600182019050919050565b7f4e487b7100000000000000000000000000000000000000000000000000000000600052603260045260246000fd5b600081905092915050565b60006124b282611cbc565b6124bc818561249c565b93506124cc818560208601611cd8565b80840191505092915050565b60006124e482856124a7565b91506124f082846124a7565b91508190509392505050565b600081519050919050565b600082825260208201905092915050565b6000612523826124fc565b61252d8185612507565b935061253d818560208601611cd8565b61254681611d02565b840191505092915050565b60006080820190506125666000830187611e03565b6125736020830186611e03565b6125806040830185611e99565b81810360608301526125928184612518565b905095945050505050565b6000815190506125ac81611c2d565b92915050565b6000602082840312156125c8576125c7611bf7565b5b60006125d68482850161259d565b91505092915050565b7f4e487b7100000000000000000000000000000000000000000000000000000000600052601260045260246000fd5b60006040820190506126236000830185611e03565b6126306020830184611e99565b939250505056fea2646970667358221220765c8be9cdd04bb845980ee27151bdeaedf1e457b75e580ac858d1c189c905d464736f6c63430008140033",
  "linkReferences": {},
  "deployedLinkReferences": {}
}