{
  "_format": "hh-sol-artifact-1",
  "contractName": "FreeNFTFixed",
  "sourceName": "contracts/FreeNFTFixed.sol",
  "abi": [
    {
      "inputs": [],
      "stateMutability": "nonpayable",
      "type": "constructor"
    },
    {
      "inputs": [
        {
          "internalType": "address",
          "name": "sender",
          "type": "address"
        },
        {
          "internalType": "uint256",
          "name": "tokenId",
          "type": "uint256"
        },
        {
          "internalType": "address",
          "name": "owner",
          "type": "address"
        }
      ],
      "name": "ERC721IncorrectOwner",
      "type": "error"
    },
    {
      "inputs": [
        {
          "internalType": "address",
          "name": "operator",
          "type": "address"
        },
        {
          "internalType": "uint256",
          "name": "tokenId",
          "type": "uint256"
        }
      ],
      "name": "ERC721InsufficientApproval",
      "type": "error"
    },
    {
      "inputs": [
        {
          "internalType": "address",
          "name": "approver",
          "type": "address"
        }
      ],
      "name": "ERC721InvalidApprover",
      "type": "error"
    },
    {
      "inputs": [
        {
          "internalType": "address",
          "name": "operator",
          "type": "address"
        }
      ],
      "name": "ERC721InvalidOperator",
      "type": "error"
    },
    {
      "inputs": [
        {
          "internalType": "address",
          "name": "owner",
          "type": "address"
        }
      ],
      "name": "ERC721InvalidOwner",
      "type": "error"
    },
    {
      "inputs": [
        {
          "internalType": "address",
          "name": "receiver",
          "type": "address"
        }
      ],
      "name": "ERC721InvalidReceiver",
      "type": "error"
    },
    {
      "inputs": [
        {
          "internalType": "address",
          "name": "sender",
          "type": "address"
        }
      ],
      "name": "ERC721InvalidSender",
      "type": "error"
    },
    {
      "inputs": [
        {
          "internalType": "uint256",
          "name": "tokenId",
          "type": "uint256"
        }
      ],
      "name": "ERC721NonexistentToken",
      "type": "error"
    },
    {
      "inputs": [
        {
          "internalType": "address",
          "name": "owner",
          "type": "address"
        }
      ],
      "name": "OwnableInvalidOwner",
      "type": "error"
    },
    {
      "inputs": [
        {
          "internalType": "address",
          "name": "account",
          "type": "address"
        }
      ],
      "name": "OwnableUnauthorizedAccount",
      "type": "error"
    },
    {
      "anonymous": false,
      "inputs": [
        {
          "indexed": true,
          "internalType": "address",
          "name": "owner",
          "type": "address"
        },
        {
          "indexed": true,
          "internalType": "address",
          "name": "approved",
          "type": "address"
        },
        {
          "indexed": true,
          "internalType": "uint256",
          "name": "tokenId",
          "type": "uint256"
        }
      ],
      "name": "Approval",
      "type": "event"
    },
    {
      "anonymous": false,
      "inputs": [
        {
          "indexed": true,
          "internalType": "address",
          "name": "owner",
          "type": "address"
        },
        {
          "indexed": true,
          "internalType": "address",
          "name": "operator",
          "type": "address"
        },
        {
          "indexed": false,
          "internalType": "bool",
          "name": "approved",
          "type": "bool"
        }
      ],
      "name": "ApprovalForAll",
      "type": "event"
    },
    {
      "anonymous": false,
      "inputs": [
        {
          "indexed": true,
          "internalType": "address",
          "name": "previousOwner",
          "type": "address"
        },
        {
          "indexed": true,
          "internalType": "address",
          "name": "newOwner",
          "type": "address"
        }
      ],
      "name": "OwnershipTransferred",
      "type": "event"
    },
    {
      "anonymous": false,
      "inputs": [
        {
          "indexed": true,
          "internalType": "address",
          "name": "from",
          "type": "address"
        },
        {
          "indexed": true,
          "internalType": "address",
          "name": "to",
          "type": "address"
        },
        {
          "indexed": true,
          "internalType": "uint256",
          "name": "tokenId",
          "type": "uint256"
        }
      ],
      "name": "Transfer",
      "type": "event"
    },
    {
      "inputs": [
        {
          "internalType": "address",
          "name": "to",
          "type": "address"
        },
        {
          "internalType": "uint256",
          "name": "tokenId",
          "type": "uint256"
        }
      ],
      "name": "approve",
      "outputs": [],
      "stateMutability": "nonpayable",
      "type": "function"
    },
    {
      "inputs": [
        {
          "internalType": "address",
          "name": "owner",
          "type": "address"
        }
      ],
      "name": "balanceOf",
      "outputs": [
        {
          "internalType": "uint256",
          "name": "",
          "type": "uint256"
        }
      ],
      "stateMutability": "view",
      "type": "function"
    },
    {
      "inputs": [
        {
          "internalType": "uint256",
          "name": "tokenId",
          "type": "uint256"
        }
      ],
      "name": "getApproved",
      "outputs": [
        {
          "internalType": "address",
          "name": "",
          "type": "address"
        }
      ],
      "stateMutability": "view",
      "type": "function"
    },
    {
      "inputs": [
        {
          "internalType": "uint256",
          "name": "tokenId",
          "type": "uint256"
        }
      ],
      "name": "getCardId",
      "outputs": [
        {
          "internalType": "uint256",
          "name": "",
          "type": "uint256"
        }
      ],
      "stateMutability": "view",
      "type": "function"
    },
    {
      "inputs": [
        {
          "internalType": "address",
          "name": "owner",
          "type": "address"
        },
        {
          "internalType": "address",
          "name": "operator",
          "type": "address"
        }
      ],
      "name": "isApprovedForAll",
      "outputs": [
        {
          "internalType": "bool",
          "name": "",
          "type": "bool"
        }
      ],
      "stateMutability": "view",
      "type": "function"
    },
    {
      "inputs": [
        {
          "internalType": "address",
          "name": "to",
          "type": "address"
        },
        {
          "internalType": "uint256[]",
          "name": "cardIds",
          "type": "uint256[]"
        }
      ],
      "name": "mintPack",
      "outputs": [
        {
          "internalType": "uint256[]",
          "name": "",
          "type": "uint256[]"
        }
      ],
      "stateMutability": "nonpayable",
      "type": "function"
    },
    {
      "inputs": [],
      "name": "name",
      "outputs": [
        {
          "internalType": "string",
          "name": "",
          "type": "string"
        }
      ],
      "stateMutability": "view",
      "type": "function"
    },
    {
      "inputs": [],
      "name": "owner",
      "outputs": [
        {
          "internalType": "address",
          "name": "",
          "type": "address"
        }
      ],
      "stateMutability": "view",
      "type": "function"
    },
    {
      "inputs": [
        {
          "internalType": "uint256",
          "name": "tokenId",
          "type": "uint256"
        }
      ],
      "name": "ownerOf",
      "outputs": [
        {
          "internalType": "address",
          "name": "",
          "type": "address"
        }
      ],
      "stateMutability": "view",
      "type": "function"
    },
    {
      "inputs": [],
      "name": "renounceOwnership",
      "outputs": [],
      "stateMutability": "nonpayable",
      "type": "function"
    },
    {
      "inputs": [
        {
          "internalType": "address",
          "name": "from",
          "type": "address"
        },
        {
          "internalType": "address",
          "name": "to",
          "type": "address"
        },
        {
          "internalType": "uint256",
          "name": "tokenId",
          "type": "uint256"
        }
      ],
      "name": "safeTransferFrom",
      "outputs": [],
      "stateMutability": "nonpayable",
      "type": "function"
    },
    {
      "inputs": [
        {
          "internalType": "address",
          "name": "from",
          "type": "address"
        },
        {
          "internalType": "address",
          "name": "to",
          "type": "address"
        },
        {
          "internalType": "uint256",
          "name": "tokenId",
          "type": "uint256"
        },
        {
          "internalType": "bytes",
          "name": "data",
          "type": "bytes"
        }
      ],
      "name": "safeTransferFrom",
      "outputs": [],
      "stateMutability": "nonpayable",
      "type": "function"
    },
    {
      "inputs": [
        {
          "internalType": "address",
          "name": "operator",
          "type": "address"
        },
        {
          "internalType": "bool",
          "name": "approved",
          "type": "bool"
        }
      ],
      "name": "setApprovalForAll",
      "outputs": [],
      "stateMutability": "nonpayable",
      "type": "function"
    },
    {
      "inputs": [
        {
          "internalType": "string",
          "name": "baseURI",
          "type": "string"
        }
      ],
      "name": "setBaseURI",
      "outputs": [],
      "stateMutability": "nonpayable",
      "type": "function"
    },
    {
      "inputs": [
        {
          "internalType": "bytes4",
          "name": "interfaceId",
          "type": "bytes4"
        }
      ],
      "name": "supportsInterface",
      "outputs": [
        {
          "internalType": "bool",
          "name": "",
          "type": "bool"
        }
      ],
      "stateMutability": "view",
      "type": "function"
    },
    {
      "inputs": [],
      "name": "symbol",
      "outputs": [
        {
          "internalType": "string",
          "name": "",
          "type": "string"
        }
      ],
      "stateMutability": "view",
      "type": "function"
    },
    {
      "inputs": [
        {
          "internalType": "uint256",
          "name": "tokenId",
          "type": "uint256"
        }
      ],
      "name": "tokenURI",
      "outputs": [
        {
          "internalType": "string",
          "name": "",
          "type": "string"
        }
      ],
      "stateMutability": "view",
      "type": "function"
    },
    {
      "inputs": [],
      "name": "totalSupply",
      "outputs": [
        {
          "internalType": "uint256",
          "name": "",
          "type": "uint256"
        }
      ],
      "stateMutability": "view",
      "type": "function"
    },
    {
      "inputs": [
        {
          "internalType": "address",
          "name": "from",
          "type": "address"
        },
        {
          "internalType": "address",
          "name": "to",
          "type": "address"
        },
        {
          "internalType": "uint256",
          "name": "tokenId",
          "type": "uint256"
        }
      ],
      "name": "transferFrom",
      "outputs": [],
      "stateMutability": "nonpayable",
      "type": "function"
    },
    {
      "inputs": [
        {
          "internalType": "address",
          "name": "newOwner",
          "type": "address"
        }
      ],
      "name": "transferOwnership",
      "outputs": [],
      "stateMutability": "nonpayable",
      "type": "function"
    }
  ],
  "bytecode": "0x60806040523480156200001157600080fd5b50336040518060400160405280600e81526020017f446565646973636f2043617264730000000000000000000000000000000000008152506040518060400160405280600381526020017f444443000000000000000000000000000000000000000000000000000000000081525081600090816200009091906200049d565b508060019081620000a291906200049d565b505050600073ffffffffffffffffffffffffffffffffffffffff168173ffffffffffffffffffffffffffffffffffffffff16036200011a5760006040517f1e4fbdf7000000000000000000000000000000000000000000000000000000008152600401620001119190620005c9565b60405180910390fd5b6200012b816200015d60201b60201c565b506040518060600160405280603081526020016200303060309139600890816200015691906200049d565b50620005e6565b6000600660009054906101000a900473ffffffffffffffffffffffffffffffffffffffff16905081600660006101000a81548173ffffffffffffffffffffffffffffffffffffffff021916908373ffffffffffffffffffffffffffffffffffffffff1602179055508173ffffffffffffffffffffffffffffffffffffffff168173ffffffffffffffffffffffffffffffffffffffff167f8be0079c531659141344cd1fd0a4f28419497f9722a3daafe3b4186f6b6457e060405160405180910390a35050565b600081519050919050565b7f4e487b7100000000000000000000000000000000000000000000000000000000600052604160045260246000fd5b7f4e487b7100000000000000000000000000000000000000000000000000000000600052602260045260246000fd5b60006002820490506001821680620002a557607f821691505b602082108103620002bb57620002ba6200025d565b5b50919050565b60008190508160005260206000209050919050565b60006020601f8301049050919050565b600082821b905092915050565b600060088302620003257fffffffffffffffffffffffffffffffffffffffffffffffffffffffffffffffff82620002e6565b620003318683620002e6565b95508019841693508086168417925050509392505050565b6000819050919050565b6000819050919050565b60006200037e62000378620003728462000349565b62000353565b62000349565b9050919050565b6000819050919050565b6200039a836200035d565b620003b2620003a98262000385565b848454620002f3565b825550505050565b600090565b620003c9620003ba565b620003d68184846200038f565b505050565b5b81811015620003fe57620003f2600082620003bf565b600181019050620003dc565b5050565b601f8211156200044d576200041781620002c1565b6200042284620002d6565b8101602085101562000432578190505b6200044a6200044185620002d6565b830182620003db565b50505b505050565b600082821c905092915050565b6000620004726000198460080262000452565b1980831691505092915050565b60006200048d83836200045f565b9150826002028217905092915050565b620004a88262000223565b67ffffffffffffffff811115620004c457620004c36200022e565b5b620004d082546200028c565b620004dd82828562000402565b600060209050601f83116001811462000515576000841562000500578287015190505b6200050c85826200047f565b8655506200057c565b601f1984166200052586620002c1565b60005b828110156200054f5784890151825560018201915060208501945060208101905062000528565b868310156200056f57848901516200056b601f8916826200045f565b8355505b6001600288020188555050505b505050505050565b600073ffffffffffffffffffffffffffffffffffffffff82169050919050565b6000620005b18262000584565b9050919050565b620005c381620005a4565b82525050565b6000602082019050620005e06000830184620005b8565b92915050565b612a3a80620005f66000396000f3fe608060405234801561001057600080fd5b506004361061012c5760003560e01c806370a08231116100ad578063b88d4fde11610071578063b88d4fde1461032f578063c87b56dd1461034b578063e985e9c51461037b578063f2fde38b146103ab578063fc952519146103c75761012c565b806370a082311461029d578063715018a6146102cd5780638da5cb5b146102d757806395d89b41146102f5578063a22cb465146103135761012c565b806323b872dd116100f457806323b872dd146101e9578063419186391461020557806342842e0e1461023557806355f804b3146102515780636352211e1461026d5761012c565b806301ffc9a71461013157806306fdde0314610161578063081812fc1461017f578063095ea7b3146101af57806318160ddd146101cb575b600080fd5b61014b60048036038101906101469190611b17565b6103f7565b6040516101589190611b5f565b60405180910390f35b6101696104d9565b6040516101769190611c0a565b60405180910390f35b61019960048036038101906101949190611c62565b61056b565b6040516101a69190611cd0565b60405180910390f35b6101c960048036038101906101c49190611d17565b610587565b005b6101d361059d565b6040516101e09190611d66565b60405180910390f35b61020360048036038101906101fe9190611d81565b6105a7565b005b61021f600480360381019061021a9190611f1c565b6106a9565b60405161022c9190612036565b60405180910390f35b61024f600480360381019061024a9190611d81565b61084e565b005b61026b6004803603810190610266919061210d565b61086e565b005b61028760048036038101906102829190611c62565b610889565b6040516102949190611cd0565b60405180910390f35b6102b760048036038101906102b29190612156565b61089b565b6040516102c49190611d66565b60405180910390f35b6102d5610955565b005b6102df610969565b6040516102ec9190611cd0565b60405180910390f35b6102fd610993565b60405161030a9190611c0a565b60405180910390f35b61032d600480360381019061032891906121af565b610a25565b005b61034960048036038101906103449190612290565b610a3b565b005b61036560048036038101906103609190611c62565b610a60565b6040516103729190611c0a565b60405180910390f35b61039560048036038101906103909190612313565b610ab7565b6040516103a29190611b5f565b60405180910390f35b6103c560048036038101906103c09190612156565b610b4b565b005b6103e160048036038101906103dc9190611c62565b610bd1565b6040516103ee9190611d66565b60405180910390f35b60007f80ac58cd000000000000000000000000000000000000000000000000000000007bffffffffffffffffffffffffffffffffffffffffffffffffffffffff1916827bffffffffffffffffffffffffffffffffffffffffffffffffffffffff191614806104c257507f5b5e139f000000000000000000000000000000000000000000000000000000007bffffffffffffffffffffffffffffffffffffffffffffffffffffffff1916827bffffffffffffffffffffffffffffffffffffffffffffffffffffffff1916145b806104d257506104d182610bf8565b5b9050919050565b6060600080546104e890612382565b80601f016020809104026020016040519081016040528092919081815260200182805461051490612382565b80156105615780601f1061053657610100808354040283529160200191610561565b820191906000526020600020905b81548152906001019060200180831161054457829003601f168201915b5050505050905090565b600061057682610c62565b5061058082610cea565b9050919050565b6105998282610594610d27565b610d2f565b5050565b6000600754905090565b600073ffffffffffffffffffffffffffffffffffffffff168273ffffffffffffffffffffffffffffffffffffffff16036106195760006040517f64a0ae920000000000000000000000000000000000000000000000000000000081526004016106109190611cd0565b60405180910390fd5b600061062d8383610628610d27565b610d41565b90508373ffffffffffffffffffffffffffffffffffffffff168173ffffffffffffffffffffffffffffffffffffffff16146106a3578382826040517f64283d7b00000000000000000000000000000000000000000000000000000000815260040161069a939291906123b3565b60405180910390fd5b50505050565b6060600082511180156106be57506003825111155b6106fd576040517f08c379a00000000000000000000000000000000000000000000000000000000081526004016106f490612436565b60405180910390fd5b6000825167ffffffffffffffff81111561071a57610719611dd9565b5b6040519080825280602002602001820160405280156107485781602001602082028036833780820191505090505b50905060005b835181101561084357601884828151811061076c5761076b612456565b5b6020026020010151106107b4576040517f08c379a00000000000000000000000000000000000000000000000000000000081526004016107ab906124d1565b60405180910390fd5b600760008154809291906107c790612520565b9190505550600060075490508482815181106107e6576107e5612456565b5b6020026020010151600960008381526020019081526020016000208190555061080f8682610f5b565b8083838151811061082357610822612456565b5b60200260200101818152505050808061083b90612520565b91505061074e565b508091505092915050565b61086983838360405180602001604052806000815250610a3b565b505050565b610876610f79565b80600890816108859190612714565b5050565b600061089482610c62565b9050919050565b60008073ffffffffffffffffffffffffffffffffffffffff168273ffffffffffffffffffffffffffffffffffffffff160361090e5760006040517f89c62b640000000000000000000000000000000000000000000000000000000081526004016109059190611cd0565b60405180910390fd5b600360008373ffffffffffffffffffffffffffffffffffffffff1673ffffffffffffffffffffffffffffffffffffffff168152602001908152602001600020549050919050565b61095d610f79565b6109676000611000565b565b6000600660009054906101000a900473ffffffffffffffffffffffffffffffffffffffff16905090565b6060600180546109a290612382565b80601f01602080910402602001604051908101604052809291908181526020018280546109ce90612382565b8015610a1b5780601f106109f057610100808354040283529160200191610a1b565b820191906000526020600020905b8154815290600101906020018083116109fe57829003601f168201915b5050505050905090565b610a37610a30610d27565b83836110c6565b5050565b610a468484846105a7565b610a5a610a51610d27565b85858585611235565b50505050565b6060610a6b82610c62565b506000600960008481526020019081526020016000205490506008610a8f826113e6565b604051602001610aa09291906128a5565b604051602081830303815290604052915050919050565b6000600560008473ffffffffffffffffffffffffffffffffffffffff1673ffffffffffffffffffffffffffffffffffffffff16815260200190815260200160002060008373ffffffffffffffffffffffffffffffffffffffff1673ffffffffffffffffffffffffffffffffffffffff16815260200190815260200160002060009054906101000a900460ff16905092915050565b610b53610f79565b600073ffffffffffffffffffffffffffffffffffffffff168173ffffffffffffffffffffffffffffffffffffffff1603610bc55760006040517f1e4fbdf7000000000000000000000000000000000000000000000000000000008152600401610bbc9190611cd0565b60405180910390fd5b610bce81611000565b50565b6000610bdc82610c62565b5060096000838152602001908152602001600020549050919050565b60007f01ffc9a7000000000000000000000000000000000000000000000000000000007bffffffffffffffffffffffffffffffffffffffffffffffffffffffff1916827bffffffffffffffffffffffffffffffffffffffffffffffffffffffff1916149050919050565b600080610c6e836114b4565b9050600073ffffffffffffffffffffffffffffffffffffffff168173ffffffffffffffffffffffffffffffffffffffff1603610ce157826040517f7e273289000000000000000000000000000000000000000000000000000000008152600401610cd89190611d66565b60405180910390fd5b80915050919050565b60006004600083815260200190815260200160002060009054906101000a900473ffffffffffffffffffffffffffffffffffffffff169050919050565b600033905090565b610d3c83838360016114f1565b505050565b600080610d4d846114b4565b9050600073ffffffffffffffffffffffffffffffffffffffff168373ffffffffffffffffffffffffffffffffffffffff1614610d8f57610d8e8184866116b6565b5b600073ffffffffffffffffffffffffffffffffffffffff168173ffffffffffffffffffffffffffffffffffffffff1614610e2057610dd16000856000806114f1565b6001600360008373ffffffffffffffffffffffffffffffffffffffff1673ffffffffffffffffffffffffffffffffffffffff168152602001908152602001600020600082825403925050819055505b600073ffffffffffffffffffffffffffffffffffffffff168573ffffffffffffffffffffffffffffffffffffffff1614610ea3576001600360008773ffffffffffffffffffffffffffffffffffffffff1673ffffffffffffffffffffffffffffffffffffffff168152602001908152602001600020600082825401925050819055505b846002600086815260200190815260200160002060006101000a81548173ffffffffffffffffffffffffffffffffffffffff021916908373ffffffffffffffffffffffffffffffffffffffff160217905550838573ffffffffffffffffffffffffffffffffffffffff168273ffffffffffffffffffffffffffffffffffffffff167fddf252ad1be2c89b69c2b068fc378daa952ba7f163c4a11628f55a4df523b3ef60405160405180910390a4809150509392505050565b610f7582826040518060200160405280600081525061177a565b5050565b610f81610d27565b73ffffffffffffffffffffffffffffffffffffffff16610f9f610969565b73ffffffffffffffffffffffffffffffffffffffff1614610ffe57610fc2610d27565b6040517f118cdaa7000000000000000000000000000000000000000000000000000000008152600401610ff59190611cd0565b60405180910390fd5b565b6000600660009054906101000a900473ffffffffffffffffffffffffffffffffffffffff16905081600660006101000a81548173ffffffffffffffffffffffffffffffffffffffff021916908373ffffffffffffffffffffffffffffffffffffffff1602179055508173ffffffffffffffffffffffffffffffffffffffff168173ffffffffffffffffffffffffffffffffffffffff167f8be0079c531659141344cd1fd0a4f28419497f9722a3daafe3b4186f6b6457e060405160405180910390a35050565b600073ffffffffffffffffffffffffffffffffffffffff168273ffffffffffffffffffffffffffffffffffffffff160361113757816040517f5b08ba1800000000000000000000000000000000000000000000000000000000815260040161112e9190611cd0565b60405180910390fd5b80600560008573ffffffffffffffffffffffffffffffffffffffff1673ffffffffffffffffffffffffffffffffffffffff16815260200190815260200160002060008473ffffffffffffffffffffffffffffffffffffffff1673ffffffffffffffffffffffffffffffffffffffff16815260200190815260200160002060006101000a81548160ff0219169083151502179055508173ffffffffffffffffffffffffffffffffffffffff168373ffffffffffffffffffffffffffffffffffffffff167f17307eab39ab6107e8899845ad3d59bd9653f200f220920489ca2b5937696c31836040516112289190611b5f565b60405180910390a3505050565b60008373ffffffffffffffffffffffffffffffffffffffff163b11156113df578273ffffffffffffffffffffffffffffffffffffffff1663150b7a02868685856040518563ffffffff1660e01b8152600401611294949392919061291e565b6020604051808303816000875af19250505080156112d057506040513d601f19601f820116820180604052508101906112cd919061297f565b60015b611354573d8060008114611300576040519150601f19603f3d011682016040523d82523d6000602084013e611305565b606091505b50600081510361134c57836040517f64a0ae920000000000000000000000000000000000000000000000000000000081526004016113439190611cd0565b60405180910390fd5b805160208201fd5b63150b7a0260e01b7bffffffffffffffffffffffffffffffffffffffffffffffffffffffff1916817bffffffffffffffffffffffffffffffffffffffffffffffffffffffff1916146113dd57836040517f64a0ae920000000000000000000000000000000000000000000000000000000081526004016113d49190611cd0565b60405180910390fd5b505b5050505050565b6060600060016113f58461179e565b01905060008167ffffffffffffffff81111561141457611413611dd9565b5b6040519080825280601f01601f1916602001820160405280156114465781602001600182028036833780820191505090505b509050600082602083010190505b6001156114a9578080600190039150507f3031323334353637383961626364656600000000000000000000000000000000600a86061a8153600a858161149d5761149c6129ac565b5b04945060008503611454575b819350505050919050565b60006002600083815260200190815260200160002060009054906101000a900473ffffffffffffffffffffffffffffffffffffffff169050919050565b808061152a5750600073ffffffffffffffffffffffffffffffffffffffff168273ffffffffffffffffffffffffffffffffffffffff1614155b1561165e57600061153a84610c62565b9050600073ffffffffffffffffffffffffffffffffffffffff168373ffffffffffffffffffffffffffffffffffffffff16141580156115a557508273ffffffffffffffffffffffffffffffffffffffff168173ffffffffffffffffffffffffffffffffffffffff1614155b80156115b857506115b68184610ab7565b155b156115fa57826040517fa9fbf51f0000000000000000000000000000000000000000000000000000000081526004016115f19190611cd0565b60405180910390fd5b811561165c57838573ffffffffffffffffffffffffffffffffffffffff168273ffffffffffffffffffffffffffffffffffffffff167f8c5be1e5ebec7d5bd14f71427d1e84f3dd0314c0f7b2291e5b200ac8c7c3b92560405160405180910390a45b505b836004600085815260200190815260200160002060006101000a81548173ffffffffffffffffffffffffffffffffffffffff021916908373ffffffffffffffffffffffffffffffffffffffff16021790555050505050565b6116c18383836118f1565b61177557600073ffffffffffffffffffffffffffffffffffffffff168373ffffffffffffffffffffffffffffffffffffffff160361173657806040517f7e27328900000000000000000000000000000000000000000000000000000000815260040161172d9190611d66565b60405180910390fd5b81816040517f177e802f00000000000000000000000000000000000000000000000000000000815260040161176c9291906129db565b60405180910390fd5b505050565b61178483836119b2565b61179961178f610d27565b6000858585611235565b505050565b600080600090507a184f03e93ff9f4daa797ed6e38ed64bf6a1f01000000000000000083106117fc577a184f03e93ff9f4daa797ed6e38ed64bf6a1f01000000000000000083816117f2576117f16129ac565b5b0492506040810190505b6d04ee2d6d415b85acef81000000008310611839576d04ee2d6d415b85acef8100000000838161182f5761182e6129ac565b5b0492506020810190505b662386f26fc10000831061186857662386f26fc10000838161185e5761185d6129ac565b5b0492506010810190505b6305f5e1008310611891576305f5e1008381611887576118866129ac565b5b0492506008810190505b61271083106118b65761271083816118ac576118ab6129ac565b5b0492506004810190505b606483106118d957606483816118cf576118ce6129ac565b5b0492506002810190505b600a83106118e8576001810190505b80915050919050565b60008073ffffffffffffffffffffffffffffffffffffffff168373ffffffffffffffffffffffffffffffffffffffff16141580156119a957508273ffffffffffffffffffffffffffffffffffffffff168473ffffffffffffffffffffffffffffffffffffffff16148061196a57506119698484610ab7565b5b806119a857508273ffffffffffffffffffffffffffffffffffffffff1661199083610cea565b73ffffffffffffffffffffffffffffffffffffffff16145b5b90509392505050565b600073ffffffffffffffffffffffffffffffffffffffff168273ffffffffffffffffffffffffffffffffffffffff1603611a245760006040517f64a0ae92000000000000000000000000000000000000000000000000000000008152600401611a1b9190611cd0565b60405180910390fd5b6000611a3283836000610d41565b9050600073ffffffffffffffffffffffffffffffffffffffff168173ffffffffffffffffffffffffffffffffffffffff1614611aa65760006040517f73c6ac6e000000000000000000000000000000000000000000000000000000008152600401611a9d9190611cd0565b60405180910390fd5b505050565b6000604051905090565b600080fd5b600080fd5b60007fffffffff0000000000000000000000000000000000000000000000000000000082169050919050565b611af481611abf565b8114611aff57600080fd5b50565b600081359050611b1181611aeb565b92915050565b600060208284031215611b2d57611b2c611ab5565b5b6000611b3b84828501611b02565b91505092915050565b60008115159050919050565b611b5981611b44565b82525050565b6000602082019050611b746000830184611b50565b92915050565b600081519050919050565b600082825260208201905092915050565b60005b83811015611bb4578082015181840152602081019050611b99565b60008484015250505050565b6000601f19601f8301169050919050565b6000611bdc82611b7a565b611be68185611b85565b9350611bf6818560208601611b96565b611bff81611bc0565b840191505092915050565b60006020820190508181036000830152611c248184611bd1565b905092915050565b6000819050919050565b611c3f81611c2c565b8114611c4a57600080fd5b50565b600081359050611c5c81611c36565b92915050565b600060208284031215611c7857611c77611ab5565b5b6000611c8684828501611c4d565b91505092915050565b600073ffffffffffffffffffffffffffffffffffffffff82169050919050565b6000611cba82611c8f565b9050919050565b611cca81611caf565b82525050565b6000602082019050611ce56000830184611cc1565b92915050565b611cf481611caf565b8114611cff57600080fd5b50565b600081359050611d1181611ceb565b92915050565b60008060408385031215611d2e57611d2d611ab5565b5b6000611d3c85828601611d02565b9250506020611d4d85828601611c4d565b9150509250929050565b611d6081611c2c565b82525050565b6000602082019050611d7b6000830184611d57565b92915050565b600080600060608486031215611d9a57611d99611ab5565b5b6000611da886828701611d02565b9350506020611db986828701611d02565b9250506040611dca86828701611c4d565b9150509250925092565b600080fd5b7f4e487b7100000000000000000000000000000000000000000000000000000000600052604160045260246000fd5b611e1182611bc0565b810181811067ffffffffffffffff82111715611e3057611e2f611dd9565b5b80604052505050565b6000611e43611aab565b9050611e4f8282611e08565b919050565b600067ffffffffffffffff821115611e6f57611e6e611dd9565b5b602082029050602081019050919050565b600080fd5b6000611e98611e9384611e54565b611e39565b90508083825260208201905060208402830185811115611ebb57611eba611e80565b5b835b81811015611ee45780611ed08882611c4d565b845260208401935050602081019050611ebd565b5050509392505050565b600082601f830112611f0357611f02611dd4565b5b8135611f13848260208601611e85565b91505092915050565b60008060408385031215611f3357611f32611ab5565b5b6000611f4185828601611d02565b925050602083013567ffffffffffffffff811115611f6257611f61611aba565b5b611f6e85828601611eee565b9150509250929050565b600081519050919050565b600082825260208201905092915050565b6000819050602082019050919050565b611fad81611c2c565b82525050565b6000611fbf8383611fa4565b60208301905092915050565b6000602082019050919050565b6000611fe382611f78565b611fed8185611f83565b9350611ff883611f94565b8060005b838110156120295781516120108882611fb3565b975061201b83611fcb565b925050600181019050611ffc565b5085935050505092915050565b600060208201905081810360008301526120508184611fd8565b905092915050565b600080fd5b600067ffffffffffffffff82111561207857612077611dd9565b5b61208182611bc0565b9050602081019050919050565b82818337600083830152505050565b60006120b06120ab8461205d565b611e39565b9050828152602081018484840111156120cc576120cb612058565b5b6120d784828561208e565b509392505050565b600082601f8301126120f4576120f3611dd4565b5b813561210484826020860161209d565b91505092915050565b60006020828403121561212357612122611ab5565b5b600082013567ffffffffffffffff81111561214157612140611aba565b5b61214d848285016120df565b91505092915050565b60006020828403121561216c5761216b611ab5565b5b600061217a84828501611d02565b91505092915050565b61218c81611b44565b811461219757600080fd5b50565b6000813590506121a981612183565b92915050565b600080604083850312156121c6576121c5611ab5565b5b60006121d485828601611d02565b92505060206121e58582860161219a565b9150509250929050565b600067ffffffffffffffff82111561220a57612209611dd9565b5b61221382611bc0565b9050602081019050919050565b600061223361222e846121ef565b611e39565b90508281526020810184848401111561224f5761224e612058565b5b61225a84828561208e565b509392505050565b600082601f83011261227757612276611dd4565b5b8135612287848260208601612220565b91505092915050565b600080600080608085870312156122aa576122a9611ab5565b5b60006122b887828801611d02565b94505060206122c987828801611d02565b93505060406122da87828801611c4d565b925050606085013567ffffffffffffffff8111156122fb576122fa611aba565b5b61230787828801612262565b91505092959194509250565b6000806040838503121561232a57612329611ab5565b5b600061233885828601611d02565b925050602061234985828601611d02565b9150509250929050565b7f4e487b7100000000000000000000000000000000000000000000000000000000600052602260045260246000fd5b6000600282049050600182168061239a57607f821691505b6020821081036123ad576123ac612353565b5b50919050565b60006060820190506123c86000830186611cc1565b6123d56020830185611d57565b6123e26040830184611cc1565b949350505050565b7f496e76616c6964206361726420636f756e740000000000000000000000000000600082015250565b6000612420601283611b85565b915061242b826123ea565b602082019050919050565b6000602082019050818103600083015261244f81612413565b9050919050565b7f4e487b7100000000000000000000000000000000000000000000000000000000600052603260045260246000fd5b7f496e76616c696420636172642049440000000000000000000000000000000000600082015250565b60006124bb600f83611b85565b91506124c682612485565b602082019050919050565b600060208201905081810360008301526124ea816124ae565b9050919050565b7f4e487b7100000000000000000000000000000000000000000000000000000000600052601160045260246000fd5b600061252b82611c2c565b91507fffffffffffffffffffffffffffffffffffffffffffffffffffffffffffffffff820361255d5761255c6124f1565b5b600182019050919050565b60008190508160005260206000209050919050565b60006020601f8301049050919050565b600082821b905092915050565b6000600883026125ca7fffffffffffffffffffffffffffffffffffffffffffffffffffffffffffffffff8261258d565b6125d4868361258d565b95508019841693508086168417925050509392505050565b6000819050919050565b600061261161260c61260784611c2c565b6125ec565b611c2c565b9050919050565b6000819050919050565b61262b836125f6565b61263f61263782612618565b84845461259a565b825550505050565b600090565b612654612647565b61265f818484612622565b505050565b5b818110156126835761267860008261264c565b600181019050612665565b5050565b601f8211156126c85761269981612568565b6126a28461257d565b810160208510156126b1578190505b6126c56126bd8561257d565b830182612664565b50505b505050565b600082821c905092915050565b60006126eb600019846008026126cd565b1980831691505092915050565b600061270483836126da565b9150826002028217905092915050565b61271d82611b7a565b67ffffffffffffffff81111561273657612735611dd9565b5b6127408254612382565b61274b828285612687565b600060209050601f83116001811461277e576000841561276c578287015190505b61277685826126f8565b8655506127de565b601f19841661278c86612568565b60005b828110156127b45784890151825560018201915060208501945060208101905061278f565b868310156127d157848901516127cd601f8916826126da565b8355505b6001600288020188555050505b505050505050565b600081905092915050565b600081546127fe81612382565b61280881866127e6565b9450600182166000811461282357600181146128385761286b565b60ff198316865281151582028601935061286b565b61284185612568565b60005b8381101561286357815481890152600182019150602081019050612844565b838801955050505b50505092915050565b600061287f82611b7a565b61288981856127e6565b9350612899818560208601611b96565b80840191505092915050565b60006128b182856127f1565b91506128bd8284612874565b91508190509392505050565b600081519050919050565b600082825260208201905092915050565b60006128f0826128c9565b6128fa81856128d4565b935061290a818560208601611b96565b61291381611bc0565b840191505092915050565b60006080820190506129336000830187611cc1565b6129406020830186611cc1565b61294d6040830185611d57565b818103606083015261295f81846128e5565b905095945050505050565b60008151905061297981611aeb565b92915050565b60006020828403121561299557612994611ab5565b5b60006129a38482850161296a565b91505092915050565b7f4e487b7100000000000000000000000000000000000000000000000000000000600052601260045260246000fd5b60006040820190506129f06000830185611cc1565b6129fd6020830184611d57565b939250505056fea264697066735822122006a32935763f5e66323c92934fb2774429fe4e9524582eed682106cb061f1dff64736f6c6343000814003368747470733a2f2f646565646973636f2d6d696e696b69742d6170702e76657263656c2e6170702f6170692f6e66742f",
  "linkReferences": {},
  "deployedLinkReferences": {}
}