{
  "_format": "hh-sol-artifact-1",
  "contractName": "FreeNFTFixed",
  "sourceName": "contracts/FreeNFTFixed.sol",
  "abi": [
    {
      "inputs": [],
      "stateMutability": "nonpayable",
      "type": "constructor"
    },
    {
      "inputs": [
        {
          "internalType": "address",
          "name": "sender",
          "type": "address"
        },
        {
          "internalType": "uint256",
          "name": "tokenId",
          "type": "uint256"
        },
        {
          "internalType": "address",
          "name": "owner",
          "type": "address"
        }
      ],
      "name": "ERC721IncorrectOwner",
      "type": "error"
    },
    {
      "inputs": [
        {
          "internalType": "address",
          "name": "operator",
          "type": "address"
        },
        {
          "internalType": "uint256",
          "name": "tokenId",
          "type": "uint256"
        }
      ],
      "name": "ERC721InsufficientApproval",
      "type": "error"
    },
    {
      "inputs": [
        {
          "internalType": "address",
          "name": "approver",
          "type": "address"
        }
      ],
      "name": "ERC721InvalidApprover",
      "type": "error"
    },
    {
      "inputs": [
        {
          "internalType": "address",
          "name": "operator",
          "type": "address"
        }
      ],
      "name": "ERC721InvalidOperator",
      "type": "error"
    },
    {
      "inputs": [
        {
          "internalType": "address",
          "name": "owner",
          "type": "address"
        }
      ],
      "name": "ERC721InvalidOwner",
      "type": "error"
    },
    {
      "inputs": [
        {
          "internalType": "address",
          "name": "receiver",
          "type": "address"
        }
      ],
      "name": "ERC721InvalidReceiver",
      "type": "error"
    },
    {
      "inputs": [
        {
          "internalType": "address",
          "name": "sender",
          "type": "address"
        }
      ],
      "name": "ERC721InvalidSender",
      "type": "error"
    },
    {
      "inputs": [
        {
          "internalType": "uint256",
          "name": "tokenId",
          "type": "uint256"
        }
      ],
      "name": "ERC721NonexistentToken",
      "type": "error"
    },
    {
      "inputs": [
        {
          "internalType": "address",
          "name": "owner",
          "type": "address"
        }
      ],
      "name": "OwnableInvalidOwner",
      "type": "error"
    },
    {
      "inputs": [
        {
          "internalType": "address",
          "name": "account",
          "type": "address"
        }
      ],
      "name": "OwnableUnauthorizedAccount",
      "type": "error"
    },
    {
      "anonymous": false,
      "inputs": [
        {
          "indexed": true,
          "internalType": "address",
          "name": "owner",
          "type": "address"
        },
        {
          "indexed": true,
          "internalType": "address",
          "name": "approved",
          "type": "address"
        },
        {
          "indexed": true,
          "internalType": "uint256",
          "name": "tokenId",
          "type": "uint256"
        }
      ],
      "name": "Approval",
      "type": "event"
    },
    {
      "anonymous": false,
      "inputs": [
        {
          "indexed": true,
          "internalType": "address",
          "name": "owner",
          "type": "address"
        },
        {
          "indexed": true,
          "internalType": "address",
          "name": "operator",
          "type": "address"
        },
        {
          "indexed": false,
          "internalType": "bool",
          "name": "approved",
          "type": "bool"
        }
      ],
      "name": "ApprovalForAll",
      "type": "event"
    },
    {
      "anonymous": false,
      "inputs": [
        {
          "indexed": true,
          "internalType": "address",
          "name": "previousOwner",
          "type": "address"
        },
        {
          "indexed": true,
          "internalType": "address",
          "name": "newOwner",
          "type": "address"
        }
      ],
      "name": "OwnershipTransferred",
      "type": "event"
    },
    {
      "anonymous": false,
      "inputs": [
        {
          "indexed": true,
          "internalType": "address",
          "name": "from",
          "type": "address"
        },
        {
          "indexed": true,
          "internalType": "address",
          "name": "to",
          "type": "address"
        },
        {
          "indexed": true,
          "internalType": "uint256",
          "name": "tokenId",
          "type": "uint256"
        }
      ],
      "name": "Transfer",
      "type": "event"
    },
    {
      "inputs": [
        {
          "internalType": "address",
          "name": "to",
          "type": "address"
        },
        {
          "internalType": "uint256",
          "name": "tokenId",
          "type": "uint256"
        }
      ],
      "name": "approve",
      "outputs": [],
      "stateMutability": "nonpayable",
      "type": "function"
    },
    {
      "inputs": [
        {
          "internalType": "address",
          "name": "owner",
          "type": "address"
        }
      ],
      "name": "balanceOf",
      "outputs": [
        {
          "internalType": "uint256",
          "name": "",
          "type": "uint256"
        }
      ],
      "stateMutability": "view",
      "type": "function"
    },
    {
      "inputs": [
        {
          "internalType": "uint256",
          "name": "tokenId",
          "type": "uint256"
        }
      ],
      "name": "getApproved",
      "outputs": [
        {
          "internalType": "address",
          "name": "",
          "type": "address"
        }
      ],
      "stateMutability": "view",
      "type": "function"
    },
    {
      "inputs": [
        {
          "internalType": "uint256",
          "name": "tokenId",
          "type": "uint256"
        }
      ],
      "name": "getCardId",
      "outputs": [
        {
          "internalType": "uint256",
          "name": "",
          "type": "uint256"
        }
      ],
      "stateMutability": "view",
      "type": "function"
    },
    {
      "inputs": [
        {
          "internalType": "address",
          "name": "owner",
          "type": "address"
        },
        {
          "internalType": "address",
          "name": "operator",
          "type": "address"
        }
      ],
      "name": "isApprovedForAll",
      "outputs": [
        {
          "internalType": "bool",
          "name": "",
          "type": "bool"
        }
      ],
      "stateMutability": "view",
      "type": "function"
    },
    {
      "inputs": [
        {
          "internalType": "address",
          "name": "to",
          "type": "address"
        },
        {
          "internalType": "uint256[]",
          "name": "cardIds",
          "type": "uint256[]"
        }
      ],
      "name": "mintPack",
      "outputs": [
        {
          "internalType": "uint256[]",
          "name": "",
          "type": "uint256[]"
        }
      ],
      "stateMutability": "nonpayable",
      "type": "function"
    },
    {
      "inputs": [],
      "name": "name",
      "outputs": [
        {
          "internalType": "string",
          "name": "",
          "type": "string"
        }
      ],
      "stateMutability": "view",
      "type": "function"
    },
    {
      "inputs": [],
      "name": "owner",
      "outputs": [
        {
          "internalType": "address",
          "name": "",
          "type": "address"
        }
      ],
      "stateMutability": "view",
      "type": "function"
    },
    {
      "inputs": [
        {
          "internalType": "uint256",
          "name": "tokenId",
          "type": "uint256"
        }
      ],
      "name": "ownerOf",
      "outputs": [
        {
          "internalType": "address",
          "name": "",
          "type": "address"
        }
      ],
      "stateMutability": "view",
      "type": "function"
    },
    {
      "inputs": [],
      "name": "renounceOwnership",
      "outputs": [],
      "stateMutability": "nonpayable",
      "type": "function"
    },
    {
      "inputs": [
        {
          "internalType": "address",
          "name": "from",
          "type": "address"
        },
        {
          "internalType": "address",
          "name": "to",
          "type": "address"
        },
        {
          "internalType": "uint256",
          "name": "tokenId",
          "type": "uint256"
        }
      ],
      "name": "safeTransferFrom",
      "outputs": [],
      "stateMutability": "nonpayable",
      "type": "function"
    },
    {
      "inputs": [
        {
          "internalType": "address",
          "name": "from",
          "type": "address"
        },
        {
          "internalType": "address",
          "name": "to",
          "type": "address"
        },
        {
          "internalType": "uint256",
          "name": "tokenId",
          "type": "uint256"
        },
        {
          "internalType": "bytes",
          "name": "data",
          "type": "bytes"
        }
      ],
      "name": "safeTransferFrom",
      "outputs": [],
      "stateMutability": "nonpayable",
      "type": "function"
    },
    {
      "inputs": [
        {
          "internalType": "address",
          "name": "operator",
          "type": "address"
        },
        {
          "internalType": "bool",
          "name": "approved",
          "type": "bool"
        }
      ],
      "name": "setApprovalForAll",
      "outputs": [],
      "stateMutability": "nonpayable",
      "type": "function"
    },
    {
      "inputs": [
        {
          "internalType": "string",
          "name": "baseURI",
          "type": "string"
        }
      ],
      "name": "setBaseURI",
      "outputs": [],
      "stateMutability": "nonpayable",
      "type": "function"
    },
    {
      "inputs": [
        {
          "internalType": "bytes4",
          "name": "interfaceId",
          "type": "bytes4"
        }
      ],
      "name": "supportsInterface",
      "outputs": [
        {
          "internalType": "bool",
          "name": "",
          "type": "bool"
        }
      ],
      "stateMutability": "view",
      "type": "function"
    },
    {
      "inputs": [],
      "name": "symbol",
      "outputs": [
        {
          "internalType": "string",
          "name": "",
          "type": "string"
        }
      ],
      "stateMutability": "view",
      "type": "function"
    },
    {
      "inputs": [
        {
          "internalType": "uint256",
          "name": "tokenId",
          "type": "uint256"
        }
      ],
      "name": "tokenURI",
      "outputs": [
        {
          "internalType": "string",
          "name": "",
          "type": "string"
        }
      ],
      "stateMutability": "view",
      "type": "function"
    },
    {
      "inputs": [],
      "name": "totalSupply",
      "outputs": [
        {
          "internalType": "uint256",
          "name": "",
          "type": "uint256"
        }
      ],
      "stateMutability": "view",
      "type": "function"
    },
    {
      "inputs": [
        {
          "internalType": "address",
          "name": "from",
          "type": "address"
        },
        {
          "internalType": "address",
          "name": "to",
          "type": "address"
        },
        {
          "internalType": "uint256",
          "name": "tokenId",
          "type": "uint256"
        }
      ],
      "name": "transferFrom",
      "outputs": [],
      "stateMutability": "nonpayable",
      "type": "function"
    },
    {
      "inputs": [
        {
          "internalType": "address",
          "name": "newOwner",
          "type": "address"
        }
      ],
      "name": "transferOwnership",
      "outputs": [],
      "stateMutability": "nonpayable",
      "type": "function"
    }
  ],
  "bytecode": "0x60806040523480156200001157600080fd5b50336040518060400160405280600e81526020017f446565646973636f2043617264730000000000000000000000000000000000008152506040518060400160405280600381526020017f444443000000000000000000000000000000000000000000000000000000000081525081600090816200009091906200049d565b508060019081620000a291906200049d565b505050600073ffffffffffffffffffffffffffffffffffffffff168173ffffffffffffffffffffffffffffffffffffffff16036200011a5760006040517f1e4fbdf7000000000000000000000000000000000000000000000000000000008152600401620001119190620005c9565b60405180910390fd5b6200012b816200015d60201b60201c565b506040518060600160405280603081526020016200301760309139600890816200015691906200049d565b50620005e6565b6000600660009054906101000a900473ffffffffffffffffffffffffffffffffffffffff16905081600660006101000a81548173ffffffffffffffffffffffffffffffffffffffff021916908373ffffffffffffffffffffffffffffffffffffffff1602179055508173ffffffffffffffffffffffffffffffffffffffff168173ffffffffffffffffffffffffffffffffffffffff167f8be0079c531659141344cd1fd0a4f28419497f9722a3daafe3b4186f6b6457e060405160405180910390a35050565b600081519050919050565b7f4e487b7100000000000000000000000000000000000000000000000000000000600052604160045260246000fd5b7f4e487b7100000000000000000000000000000000000000000000000000000000600052602260045260246000fd5b60006002820490506001821680620002a557607f821691505b602082108103620002bb57620002ba6200025d565b5b50919050565b60008190508160005260206000209050919050565b60006020601f8301049050919050565b600082821b905092915050565b600060088302620003257fffffffffffffffffffffffffffffffffffffffffffffffffffffffffffffffff82620002e6565b620003318683620002e6565b95508019841693508086168417925050509392505050565b6000819050919050565b6000819050919050565b60006200037e62000378620003728462000349565b62000353565b62000349565b9050919050565b6000819050919050565b6200039a836200035d565b620003b2620003a98262000385565b848454620002f3565b825550505050565b600090565b620003c9620003ba565b620003d68184846200038f565b505050565b5b81811015620003fe57620003f2600082620003bf565b600181019050620003dc565b5050565b601f8211156200044d576200041781620002c1565b6200042284620002d6565b8101602085101562000432578190505b6200044a6200044185620002d6565b830182620003db565b50505b505050565b600082821c905092915050565b6000620004726000198460080262000452565b1980831691505092915050565b60006200048d83836200045f565b9150826002028217905092915050565b620004a88262000223565b67ffffffffffffffff811115620004c457620004c36200022e565b5b620004d082546200028c565b620004dd82828562000402565b600060209050601f83116001811462000515576000841562000500578287015190505b6200050c85826200047f565b8655506200057c565b601f1984166200052586620002c1565b60005b828110156200054f5784890151825560018201915060208501945060208101905062000528565b868310156200056f57848901516200056b601f8916826200045f565b8355505b6001600288020188555050505b505050505050565b600073ffffffffffffffffffffffffffffffffffffffff82169050919050565b6000620005b18262000584565b9050919050565b620005c381620005a4565b82525050565b6000602082019050620005e06000830184620005b8565b92915050565b612a2180620005f66000396000f3fe608060405234801561001057600080fd5b506004361061012c5760003560e01c806370a08231116100ad578063b88d4fde11610071578063b88d4fde1461032f578063c87b56dd1461034b578063e985e9c51461037b578063f2fde38b146103ab578063fc952519146103c75761012c565b806370a082311461029d578063715018a6146102cd5780638da5cb5b146102d757806395d89b41146102f5578063a22cb465146103135761012c565b806323b872dd116100f457806323b872dd146101e9578063419186391461020557806342842e0e1461023557806355f804b3146102515780636352211e1461026d5761012c565b806301ffc9a71461013157806306fdde0314610161578063081812fc1461017f578063095ea7b3146101af57806318160ddd146101cb575b600080fd5b61014b60048036038101906101469190611afe565b6103f7565b6040516101589190611b46565b60405180910390f35b6101696104d9565b6040516101769190611bf1565b60405180910390f35b61019960048036038101906101949190611c49565b61056b565b6040516101a69190611cb7565b60405180910390f35b6101c960048036038101906101c49190611cfe565b610587565b005b6101d361059d565b6040516101e09190611d4d565b60405180910390f35b61020360048036038101906101fe9190611d68565b6105a7565b005b61021f600480360381019061021a9190611f03565b6106a9565b60405161022c919061201d565b60405180910390f35b61024f600480360381019061024a9190611d68565b61084e565b005b61026b600480360381019061026691906120f4565b61086e565b005b61028760048036038101906102829190611c49565b610889565b6040516102949190611cb7565b60405180910390f35b6102b760048036038101906102b2919061213d565b61089b565b6040516102c49190611d4d565b60405180910390f35b6102d5610955565b005b6102df610969565b6040516102ec9190611cb7565b60405180910390f35b6102fd610993565b60405161030a9190611bf1565b60405180910390f35b61032d60048036038101906103289190612196565b610a25565b005b61034960048036038101906103449190612277565b610a3b565b005b61036560048036038101906103609190611c49565b610a60565b6040516103729190611bf1565b60405180910390f35b610395600480360381019061039091906122fa565b610a9e565b6040516103a29190611b46565b60405180910390f35b6103c560048036038101906103c0919061213d565b610b32565b005b6103e160048036038101906103dc9190611c49565b610bb8565b6040516103ee9190611d4d565b60405180910390f35b60007f80ac58cd000000000000000000000000000000000000000000000000000000007bffffffffffffffffffffffffffffffffffffffffffffffffffffffff1916827bffffffffffffffffffffffffffffffffffffffffffffffffffffffff191614806104c257507f5b5e139f000000000000000000000000000000000000000000000000000000007bffffffffffffffffffffffffffffffffffffffffffffffffffffffff1916827bffffffffffffffffffffffffffffffffffffffffffffffffffffffff1916145b806104d257506104d182610bdf565b5b9050919050565b6060600080546104e890612369565b80601f016020809104026020016040519081016040528092919081815260200182805461051490612369565b80156105615780601f1061053657610100808354040283529160200191610561565b820191906000526020600020905b81548152906001019060200180831161054457829003601f168201915b5050505050905090565b600061057682610c49565b5061058082610cd1565b9050919050565b6105998282610594610d0e565b610d16565b5050565b6000600754905090565b600073ffffffffffffffffffffffffffffffffffffffff168273ffffffffffffffffffffffffffffffffffffffff16036106195760006040517f64a0ae920000000000000000000000000000000000000000000000000000000081526004016106109190611cb7565b60405180910390fd5b600061062d8383610628610d0e565b610d28565b90508373ffffffffffffffffffffffffffffffffffffffff168173ffffffffffffffffffffffffffffffffffffffff16146106a3578382826040517f64283d7b00000000000000000000000000000000000000000000000000000000815260040161069a9392919061239a565b60405180910390fd5b50505050565b6060600082511180156106be57506003825111155b6106fd576040517f08c379a00000000000000000000000000000000000000000000000000000000081526004016106f49061241d565b60405180910390fd5b6000825167ffffffffffffffff81111561071a57610719611dc0565b5b6040519080825280602002602001820160405280156107485781602001602082028036833780820191505090505b50905060005b835181101561084357601884828151811061076c5761076b61243d565b5b6020026020010151106107b4576040517f08c379a00000000000000000000000000000000000000000000000000000000081526004016107ab906124b8565b60405180910390fd5b600760008154809291906107c790612507565b9190505550600060075490508482815181106107e6576107e561243d565b5b6020026020010151600960008381526020019081526020016000208190555061080f8682610f42565b808383815181106108235761082261243d565b5b60200260200101818152505050808061083b90612507565b91505061074e565b508091505092915050565b61086983838360405180602001604052806000815250610a3b565b505050565b610876610f60565b806008908161088591906126fb565b5050565b600061089482610c49565b9050919050565b60008073ffffffffffffffffffffffffffffffffffffffff168273ffffffffffffffffffffffffffffffffffffffff160361090e5760006040517f89c62b640000000000000000000000000000000000000000000000000000000081526004016109059190611cb7565b60405180910390fd5b600360008373ffffffffffffffffffffffffffffffffffffffff1673ffffffffffffffffffffffffffffffffffffffff168152602001908152602001600020549050919050565b61095d610f60565b6109676000610fe7565b565b6000600660009054906101000a900473ffffffffffffffffffffffffffffffffffffffff16905090565b6060600180546109a290612369565b80601f01602080910402602001604051908101604052809291908181526020018280546109ce90612369565b8015610a1b5780601f106109f057610100808354040283529160200191610a1b565b820191906000526020600020905b8154815290600101906020018083116109fe57829003601f168201915b5050505050905090565b610a37610a30610d0e565b83836110ad565b5050565b610a468484846105a7565b610a5a610a51610d0e565b8585858561121c565b50505050565b6060610a6b82610c49565b506008610a77836113cd565b604051602001610a8892919061288c565b6040516020818303038152906040529050919050565b6000600560008473ffffffffffffffffffffffffffffffffffffffff1673ffffffffffffffffffffffffffffffffffffffff16815260200190815260200160002060008373ffffffffffffffffffffffffffffffffffffffff1673ffffffffffffffffffffffffffffffffffffffff16815260200190815260200160002060009054906101000a900460ff16905092915050565b610b3a610f60565b600073ffffffffffffffffffffffffffffffffffffffff168173ffffffffffffffffffffffffffffffffffffffff1603610bac5760006040517f1e4fbdf7000000000000000000000000000000000000000000000000000000008152600401610ba39190611cb7565b60405180910390fd5b610bb581610fe7565b50565b6000610bc382610c49565b5060096000838152602001908152602001600020549050919050565b60007f01ffc9a7000000000000000000000000000000000000000000000000000000007bffffffffffffffffffffffffffffffffffffffffffffffffffffffff1916827bffffffffffffffffffffffffffffffffffffffffffffffffffffffff1916149050919050565b600080610c558361149b565b9050600073ffffffffffffffffffffffffffffffffffffffff168173ffffffffffffffffffffffffffffffffffffffff1603610cc857826040517f7e273289000000000000000000000000000000000000000000000000000000008152600401610cbf9190611d4d565b60405180910390fd5b80915050919050565b60006004600083815260200190815260200160002060009054906101000a900473ffffffffffffffffffffffffffffffffffffffff169050919050565b600033905090565b610d2383838360016114d8565b505050565b600080610d348461149b565b9050600073ffffffffffffffffffffffffffffffffffffffff168373ffffffffffffffffffffffffffffffffffffffff1614610d7657610d7581848661169d565b5b600073ffffffffffffffffffffffffffffffffffffffff168173ffffffffffffffffffffffffffffffffffffffff1614610e0757610db86000856000806114d8565b6001600360008373ffffffffffffffffffffffffffffffffffffffff1673ffffffffffffffffffffffffffffffffffffffff168152602001908152602001600020600082825403925050819055505b600073ffffffffffffffffffffffffffffffffffffffff168573ffffffffffffffffffffffffffffffffffffffff1614610e8a576001600360008773ffffffffffffffffffffffffffffffffffffffff1673ffffffffffffffffffffffffffffffffffffffff168152602001908152602001600020600082825401925050819055505b846002600086815260200190815260200160002060006101000a81548173ffffffffffffffffffffffffffffffffffffffff021916908373ffffffffffffffffffffffffffffffffffffffff160217905550838573ffffffffffffffffffffffffffffffffffffffff168273ffffffffffffffffffffffffffffffffffffffff167fddf252ad1be2c89b69c2b068fc378daa952ba7f163c4a11628f55a4df523b3ef60405160405180910390a4809150509392505050565b610f5c828260405180602001604052806000815250611761565b5050565b610f68610d0e565b73ffffffffffffffffffffffffffffffffffffffff16610f86610969565b73ffffffffffffffffffffffffffffffffffffffff1614610fe557610fa9610d0e565b6040517f118cdaa7000000000000000000000000000000000000000000000000000000008152600401610fdc9190611cb7565b60405180910390fd5b565b6000600660009054906101000a900473ffffffffffffffffffffffffffffffffffffffff16905081600660006101000a81548173ffffffffffffffffffffffffffffffffffffffff021916908373ffffffffffffffffffffffffffffffffffffffff1602179055508173ffffffffffffffffffffffffffffffffffffffff168173ffffffffffffffffffffffffffffffffffffffff167f8be0079c531659141344cd1fd0a4f28419497f9722a3daafe3b4186f6b6457e060405160405180910390a35050565b600073ffffffffffffffffffffffffffffffffffffffff168273ffffffffffffffffffffffffffffffffffffffff160361111e57816040517f5b08ba180000000000000000000000000000000000000000000000000000000081526004016111159190611cb7565b60405180910390fd5b80600560008573ffffffffffffffffffffffffffffffffffffffff1673ffffffffffffffffffffffffffffffffffffffff16815260200190815260200160002060008473ffffffffffffffffffffffffffffffffffffffff1673ffffffffffffffffffffffffffffffffffffffff16815260200190815260200160002060006101000a81548160ff0219169083151502179055508173ffffffffffffffffffffffffffffffffffffffff168373ffffffffffffffffffffffffffffffffffffffff167f17307eab39ab6107e8899845ad3d59bd9653f200f220920489ca2b5937696c318360405161120f9190611b46565b60405180910390a3505050565b60008373ffffffffffffffffffffffffffffffffffffffff163b11156113c6578273ffffffffffffffffffffffffffffffffffffffff1663150b7a02868685856040518563ffffffff1660e01b815260040161127b9493929190612905565b6020604051808303816000875af19250505080156112b757506040513d601f19601f820116820180604052508101906112b49190612966565b60015b61133b573d80600081146112e7576040519150601f19603f3d011682016040523d82523d6000602084013e6112ec565b606091505b50600081510361133357836040517f64a0ae9200000000000000000000000000000000000000000000000000000000815260040161132a9190611cb7565b60405180910390fd5b805160208201fd5b63150b7a0260e01b7bffffffffffffffffffffffffffffffffffffffffffffffffffffffff1916817bffffffffffffffffffffffffffffffffffffffffffffffffffffffff1916146113c457836040517f64a0ae920000000000000000000000000000000000000000000000000000000081526004016113bb9190611cb7565b60405180910390fd5b505b5050505050565b6060600060016113dc84611785565b01905060008167ffffffffffffffff8111156113fb576113fa611dc0565b5b6040519080825280601f01601f19166020018201604052801561142d5781602001600182028036833780820191505090505b509050600082602083010190505b600115611490578080600190039150507f3031323334353637383961626364656600000000000000000000000000000000600a86061a8153600a858161148457611483612993565b5b0494506000850361143b575b819350505050919050565b60006002600083815260200190815260200160002060009054906101000a900473ffffffffffffffffffffffffffffffffffffffff169050919050565b80806115115750600073ffffffffffffffffffffffffffffffffffffffff168273ffffffffffffffffffffffffffffffffffffffff1614155b1561164557600061152184610c49565b9050600073ffffffffffffffffffffffffffffffffffffffff168373ffffffffffffffffffffffffffffffffffffffff161415801561158c57508273ffffffffffffffffffffffffffffffffffffffff168173ffffffffffffffffffffffffffffffffffffffff1614155b801561159f575061159d8184610a9e565b155b156115e157826040517fa9fbf51f0000000000000000000000000000000000000000000000000000000081526004016115d89190611cb7565b60405180910390fd5b811561164357838573ffffffffffffffffffffffffffffffffffffffff168273ffffffffffffffffffffffffffffffffffffffff167f8c5be1e5ebec7d5bd14f71427d1e84f3dd0314c0f7b2291e5b200ac8c7c3b92560405160405180910390a45b505b836004600085815260200190815260200160002060006101000a81548173ffffffffffffffffffffffffffffffffffffffff021916908373ffffffffffffffffffffffffffffffffffffffff16021790555050505050565b6116a88383836118d8565b61175c57600073ffffffffffffffffffffffffffffffffffffffff168373ffffffffffffffffffffffffffffffffffffffff160361171d57806040517f7e2732890000000000000000000000000000000000000000000000000000000081526004016117149190611d4d565b60405180910390fd5b81816040517f177e802f0000000000000000000000000000000000000000000000000000000081526004016117539291906129c2565b60405180910390fd5b505050565b61176b8383611999565b611780611776610d0e565b600085858561121c565b505050565b600080600090507a184f03e93ff9f4daa797ed6e38ed64bf6a1f01000000000000000083106117e3577a184f03e93ff9f4daa797ed6e38ed64bf6a1f01000000000000000083816117d9576117d8612993565b5b0492506040810190505b6d04ee2d6d415b85acef81000000008310611820576d04ee2d6d415b85acef8100000000838161181657611815612993565b5b0492506020810190505b662386f26fc10000831061184f57662386f26fc10000838161184557611844612993565b5b0492506010810190505b6305f5e1008310611878576305f5e100838161186e5761186d612993565b5b0492506008810190505b612710831061189d57612710838161189357611892612993565b5b0492506004810190505b606483106118c057606483816118b6576118b5612993565b5b0492506002810190505b600a83106118cf576001810190505b80915050919050565b60008073ffffffffffffffffffffffffffffffffffffffff168373ffffffffffffffffffffffffffffffffffffffff161415801561199057508273ffffffffffffffffffffffffffffffffffffffff168473ffffffffffffffffffffffffffffffffffffffff16148061195157506119508484610a9e565b5b8061198f57508273ffffffffffffffffffffffffffffffffffffffff1661197783610cd1565b73ffffffffffffffffffffffffffffffffffffffff16145b5b90509392505050565b600073ffffffffffffffffffffffffffffffffffffffff168273ffffffffffffffffffffffffffffffffffffffff1603611a0b5760006040517f64a0ae92000000000000000000000000000000000000000000000000000000008152600401611a029190611cb7565b60405180910390fd5b6000611a1983836000610d28565b9050600073ffffffffffffffffffffffffffffffffffffffff168173ffffffffffffffffffffffffffffffffffffffff1614611a8d5760006040517f73c6ac6e000000000000000000000000000000000000000000000000000000008152600401611a849190611cb7565b60405180910390fd5b505050565b6000604051905090565b600080fd5b600080fd5b60007fffffffff0000000000000000000000000000000000000000000000000000000082169050919050565b611adb81611aa6565b8114611ae657600080fd5b50565b600081359050611af881611ad2565b92915050565b600060208284031215611b1457611b13611a9c565b5b6000611b2284828501611ae9565b91505092915050565b60008115159050919050565b611b4081611b2b565b82525050565b6000602082019050611b5b6000830184611b37565b92915050565b600081519050919050565b600082825260208201905092915050565b60005b83811015611b9b578082015181840152602081019050611b80565b60008484015250505050565b6000601f19601f8301169050919050565b6000611bc382611b61565b611bcd8185611b6c565b9350611bdd818560208601611b7d565b611be681611ba7565b840191505092915050565b60006020820190508181036000830152611c0b8184611bb8565b905092915050565b6000819050919050565b611c2681611c13565b8114611c3157600080fd5b50565b600081359050611c4381611c1d565b92915050565b600060208284031215611c5f57611c5e611a9c565b5b6000611c6d84828501611c34565b91505092915050565b600073ffffffffffffffffffffffffffffffffffffffff82169050919050565b6000611ca182611c76565b9050919050565b611cb181611c96565b82525050565b6000602082019050611ccc6000830184611ca8565b92915050565b611cdb81611c96565b8114611ce657600080fd5b50565b600081359050611cf881611cd2565b92915050565b60008060408385031215611d1557611d14611a9c565b5b6000611d2385828601611ce9565b9250506020611d3485828601611c34565b9150509250929050565b611d4781611c13565b82525050565b6000602082019050611d626000830184611d3e565b92915050565b600080600060608486031215611d8157611d80611a9c565b5b6000611d8f86828701611ce9565b9350506020611da086828701611ce9565b9250506040611db186828701611c34565b9150509250925092565b600080fd5b7f4e487b7100000000000000000000000000000000000000000000000000000000600052604160045260246000fd5b611df882611ba7565b810181811067ffffffffffffffff82111715611e1757611e16611dc0565b5b80604052505050565b6000611e2a611a92565b9050611e368282611def565b919050565b600067ffffffffffffffff821115611e5657611e55611dc0565b5b602082029050602081019050919050565b600080fd5b6000611e7f611e7a84611e3b565b611e20565b90508083825260208201905060208402830185811115611ea257611ea1611e67565b5b835b81811015611ecb5780611eb78882611c34565b845260208401935050602081019050611ea4565b5050509392505050565b600082601f830112611eea57611ee9611dbb565b5b8135611efa848260208601611e6c565b91505092915050565b60008060408385031215611f1a57611f19611a9c565b5b6000611f2885828601611ce9565b925050602083013567ffffffffffffffff811115611f4957611f48611aa1565b5b611f5585828601611ed5565b9150509250929050565b600081519050919050565b600082825260208201905092915050565b6000819050602082019050919050565b611f9481611c13565b82525050565b6000611fa68383611f8b565b60208301905092915050565b6000602082019050919050565b6000611fca82611f5f565b611fd48185611f6a565b9350611fdf83611f7b565b8060005b83811015612010578151611ff78882611f9a565b975061200283611fb2565b925050600181019050611fe3565b5085935050505092915050565b600060208201905081810360008301526120378184611fbf565b905092915050565b600080fd5b600067ffffffffffffffff82111561205f5761205e611dc0565b5b61206882611ba7565b9050602081019050919050565b82818337600083830152505050565b600061209761209284612044565b611e20565b9050828152602081018484840111156120b3576120b261203f565b5b6120be848285612075565b509392505050565b600082601f8301126120db576120da611dbb565b5b81356120eb848260208601612084565b91505092915050565b60006020828403121561210a57612109611a9c565b5b600082013567ffffffffffffffff81111561212857612127611aa1565b5b612134848285016120c6565b91505092915050565b60006020828403121561215357612152611a9c565b5b600061216184828501611ce9565b91505092915050565b61217381611b2b565b811461217e57600080fd5b50565b6000813590506121908161216a565b92915050565b600080604083850312156121ad576121ac611a9c565b5b60006121bb85828601611ce9565b92505060206121cc85828601612181565b9150509250929050565b600067ffffffffffffffff8211156121f1576121f0611dc0565b5b6121fa82611ba7565b9050602081019050919050565b600061221a612215846121d6565b611e20565b9050828152602081018484840111156122365761223561203f565b5b612241848285612075565b509392505050565b600082601f83011261225e5761225d611dbb565b5b813561226e848260208601612207565b91505092915050565b6000806000806080858703121561229157612290611a9c565b5b600061229f87828801611ce9565b94505060206122b087828801611ce9565b93505060406122c187828801611c34565b925050606085013567ffffffffffffffff8111156122e2576122e1611aa1565b5b6122ee87828801612249565b91505092959194509250565b6000806040838503121561231157612310611a9c565b5b600061231f85828601611ce9565b925050602061233085828601611ce9565b9150509250929050565b7f4e487b7100000000000000000000000000000000000000000000000000000000600052602260045260246000fd5b6000600282049050600182168061238157607f821691505b6020821081036123945761239361233a565b5b50919050565b60006060820190506123af6000830186611ca8565b6123bc6020830185611d3e565b6123c96040830184611ca8565b949350505050565b7f496e76616c6964206361726420636f756e740000000000000000000000000000600082015250565b6000612407601283611b6c565b9150612412826123d1565b602082019050919050565b60006020820190508181036000830152612436816123fa565b9050919050565b7f4e487b7100000000000000000000000000000000000000000000000000000000600052603260045260246000fd5b7f496e76616c696420636172642049440000000000000000000000000000000000600082015250565b60006124a2600f83611b6c565b91506124ad8261246c565b602082019050919050565b600060208201905081810360008301526124d181612495565b9050919050565b7f4e487b7100000000000000000000000000000000000000000000000000000000600052601160045260246000fd5b600061251282611c13565b91507fffffffffffffffffffffffffffffffffffffffffffffffffffffffffffffffff8203612544576125436124d8565b5b600182019050919050565b60008190508160005260206000209050919050565b60006020601f8301049050919050565b600082821b905092915050565b6000600883026125b17fffffffffffffffffffffffffffffffffffffffffffffffffffffffffffffffff82612574565b6125bb8683612574565b95508019841693508086168417925050509392505050565b6000819050919050565b60006125f86125f36125ee84611c13565b6125d3565b611c13565b9050919050565b6000819050919050565b612612836125dd565b61262661261e826125ff565b848454612581565b825550505050565b600090565b61263b61262e565b612646818484612609565b505050565b5b8181101561266a5761265f600082612633565b60018101905061264c565b5050565b601f8211156126af576126808161254f565b61268984612564565b81016020851015612698578190505b6126ac6126a485612564565b83018261264b565b50505b505050565b600082821c905092915050565b60006126d2600019846008026126b4565b1980831691505092915050565b60006126eb83836126c1565b9150826002028217905092915050565b61270482611b61565b67ffffffffffffffff81111561271d5761271c611dc0565b5b6127278254612369565b61273282828561266e565b600060209050601f8311600181146127655760008415612753578287015190505b61275d85826126df565b8655506127c5565b601f1984166127738661254f565b60005b8281101561279b57848901518255600182019150602085019450602081019050612776565b868310156127b857848901516127b4601f8916826126c1565b8355505b6001600288020188555050505b505050505050565b600081905092915050565b600081546127e581612369565b6127ef81866127cd565b9450600182166000811461280a576001811461281f57612852565b60ff1983168652811515820286019350612852565b6128288561254f565b60005b8381101561284a5781548189015260018201915060208101905061282b565b838801955050505b50505092915050565b600061286682611b61565b61287081856127cd565b9350612880818560208601611b7d565b80840191505092915050565b600061289882856127d8565b91506128a4828461285b565b91508190509392505050565b600081519050919050565b600082825260208201905092915050565b60006128d7826128b0565b6128e181856128bb565b93506128f1818560208601611b7d565b6128fa81611ba7565b840191505092915050565b600060808201905061291a6000830187611ca8565b6129276020830186611ca8565b6129346040830185611d3e565b818103606083015261294681846128cc565b905095945050505050565b60008151905061296081611ad2565b92915050565b60006020828403121561297c5761297b611a9c565b5b600061298a84828501612951565b91505092915050565b7f4e487b7100000000000000000000000000000000000000000000000000000000600052601260045260246000fd5b60006040820190506129d76000830185611ca8565b6129e46020830184611d3e565b939250505056fea2646970667358221220719121156afe4f13992cbca6b0895ab7095499398028e13502bd3fafe93be0eb64736f6c6343000814003368747470733a2f2f646565646973636f2d6d696e696b69742d6170702e76657263656c2e6170702f6170692f6e66742f",
  "linkReferences": {},
  "deployedLinkReferences": {}
}