{
  "_format": "hh-sol-artifact-1",
  "contractName": "FreeNFT",
  "sourceName": "contracts/FreeNFT.sol",
  "abi": [
    {
      "inputs": [],
      "stateMutability": "nonpayable",
      "type": "constructor"
    },
    {
      "inputs": [
        {
          "internalType": "address",
          "name": "sender",
          "type": "address"
        },
        {
          "internalType": "uint256",
          "name": "tokenId",
          "type": "uint256"
        },
        {
          "internalType": "address",
          "name": "owner",
          "type": "address"
        }
      ],
      "name": "ERC721IncorrectOwner",
      "type": "error"
    },
    {
      "inputs": [
        {
          "internalType": "address",
          "name": "operator",
          "type": "address"
        },
        {
          "internalType": "uint256",
          "name": "tokenId",
          "type": "uint256"
        }
      ],
      "name": "ERC721InsufficientApproval",
      "type": "error"
    },
    {
      "inputs": [
        {
          "internalType": "address",
          "name": "approver",
          "type": "address"
        }
      ],
      "name": "ERC721InvalidApprover",
      "type": "error"
    },
    {
      "inputs": [
        {
          "internalType": "address",
          "name": "operator",
          "type": "address"
        }
      ],
      "name": "ERC721InvalidOperator",
      "type": "error"
    },
    {
      "inputs": [
        {
          "internalType": "address",
          "name": "owner",
          "type": "address"
        }
      ],
      "name": "ERC721InvalidOwner",
      "type": "error"
    },
    {
      "inputs": [
        {
          "internalType": "address",
          "name": "receiver",
          "type": "address"
        }
      ],
      "name": "ERC721InvalidReceiver",
      "type": "error"
    },
    {
      "inputs": [
        {
          "internalType": "address",
          "name": "sender",
          "type": "address"
        }
      ],
      "name": "ERC721InvalidSender",
      "type": "error"
    },
    {
      "inputs": [
        {
          "internalType": "uint256",
          "name": "tokenId",
          "type": "uint256"
        }
      ],
      "name": "ERC721NonexistentToken",
      "type": "error"
    },
    {
      "inputs": [
        {
          "internalType": "address",
          "name": "owner",
          "type": "address"
        }
      ],
      "name": "OwnableInvalidOwner",
      "type": "error"
    },
    {
      "inputs": [
        {
          "internalType": "address",
          "name": "account",
          "type": "address"
        }
      ],
      "name": "OwnableUnauthorizedAccount",
      "type": "error"
    },
    {
      "anonymous": false,
      "inputs": [
        {
          "indexed": true,
          "internalType": "address",
          "name": "owner",
          "type": "address"
        },
        {
          "indexed": true,
          "internalType": "address",
          "name": "approved",
          "type": "address"
        },
        {
          "indexed": true,
          "internalType": "uint256",
          "name": "tokenId",
          "type": "uint256"
        }
      ],
      "name": "Approval",
      "type": "event"
    },
    {
      "anonymous": false,
      "inputs": [
        {
          "indexed": true,
          "internalType": "address",
          "name": "owner",
          "type": "address"
        },
        {
          "indexed": true,
          "internalType": "address",
          "name": "operator",
          "type": "address"
        },
        {
          "indexed": false,
          "internalType": "bool",
          "name": "approved",
          "type": "bool"
        }
      ],
      "name": "ApprovalForAll",
      "type": "event"
    },
    {
      "anonymous": false,
      "inputs": [
        {
          "indexed": true,
          "internalType": "address",
          "name": "previousOwner",
          "type": "address"
        },
        {
          "indexed": true,
          "internalType": "address",
          "name": "newOwner",
          "type": "address"
        }
      ],
      "name": "OwnershipTransferred",
      "type": "event"
    },
    {
      "anonymous": false,
      "inputs": [
        {
          "indexed": true,
          "internalType": "address",
          "name": "from",
          "type": "address"
        },
        {
          "indexed": true,
          "internalType": "address",
          "name": "to",
          "type": "address"
        },
        {
          "indexed": true,
          "internalType": "uint256",
          "name": "tokenId",
          "type": "uint256"
        }
      ],
      "name": "Transfer",
      "type": "event"
    },
    {
      "inputs": [
        {
          "internalType": "address",
          "name": "to",
          "type": "address"
        },
        {
          "internalType": "uint256",
          "name": "tokenId",
          "type": "uint256"
        }
      ],
      "name": "approve",
      "outputs": [],
      "stateMutability": "nonpayable",
      "type": "function"
    },
    {
      "inputs": [
        {
          "internalType": "address",
          "name": "owner",
          "type": "address"
        }
      ],
      "name": "balanceOf",
      "outputs": [
        {
          "internalType": "uint256",
          "name": "",
          "type": "uint256"
        }
      ],
      "stateMutability": "view",
      "type": "function"
    },
    {
      "inputs": [
        {
          "internalType": "uint256",
          "name": "tokenId",
          "type": "uint256"
        }
      ],
      "name": "getApproved",
      "outputs": [
        {
          "internalType": "address",
          "name": "",
          "type": "address"
        }
      ],
      "stateMutability": "view",
      "type": "function"
    },
    {
      "inputs": [
        {
          "internalType": "address",
          "name": "owner",
          "type": "address"
        },
        {
          "internalType": "address",
          "name": "operator",
          "type": "address"
        }
      ],
      "name": "isApprovedForAll",
      "outputs": [
        {
          "internalType": "bool",
          "name": "",
          "type": "bool"
        }
      ],
      "stateMutability": "view",
      "type": "function"
    },
    {
      "inputs": [
        {
          "internalType": "address",
          "name": "to",
          "type": "address"
        },
        {
          "internalType": "uint256",
          "name": "quantity",
          "type": "uint256"
        }
      ],
      "name": "mintPack",
      "outputs": [
        {
          "internalType": "uint256[]",
          "name": "",
          "type": "uint256[]"
        }
      ],
      "stateMutability": "nonpayable",
      "type": "function"
    },
    {
      "inputs": [],
      "name": "name",
      "outputs": [
        {
          "internalType": "string",
          "name": "",
          "type": "string"
        }
      ],
      "stateMutability": "view",
      "type": "function"
    },
    {
      "inputs": [],
      "name": "owner",
      "outputs": [
        {
          "internalType": "address",
          "name": "",
          "type": "address"
        }
      ],
      "stateMutability": "view",
      "type": "function"
    },
    {
      "inputs": [
        {
          "internalType": "uint256",
          "name": "tokenId",
          "type": "uint256"
        }
      ],
      "name": "ownerOf",
      "outputs": [
        {
          "internalType": "address",
          "name": "",
          "type": "address"
        }
      ],
      "stateMutability": "view",
      "type": "function"
    },
    {
      "inputs": [],
      "name": "renounceOwnership",
      "outputs": [],
      "stateMutability": "nonpayable",
      "type": "function"
    },
    {
      "inputs": [
        {
          "internalType": "address",
          "name": "from",
          "type": "address"
        },
        {
          "internalType": "address",
          "name": "to",
          "type": "address"
        },
        {
          "internalType": "uint256",
          "name": "tokenId",
          "type": "uint256"
        }
      ],
      "name": "safeTransferFrom",
      "outputs": [],
      "stateMutability": "nonpayable",
      "type": "function"
    },
    {
      "inputs": [
        {
          "internalType": "address",
          "name": "from",
          "type": "address"
        },
        {
          "internalType": "address",
          "name": "to",
          "type": "address"
        },
        {
          "internalType": "uint256",
          "name": "tokenId",
          "type": "uint256"
        },
        {
          "internalType": "bytes",
          "name": "data",
          "type": "bytes"
        }
      ],
      "name": "safeTransferFrom",
      "outputs": [],
      "stateMutability": "nonpayable",
      "type": "function"
    },
    {
      "inputs": [
        {
          "internalType": "address",
          "name": "operator",
          "type": "address"
        },
        {
          "internalType": "bool",
          "name": "approved",
          "type": "bool"
        }
      ],
      "name": "setApprovalForAll",
      "outputs": [],
      "stateMutability": "nonpayable",
      "type": "function"
    },
    {
      "inputs": [
        {
          "internalType": "string",
          "name": "baseURI",
          "type": "string"
        }
      ],
      "name": "setBaseURI",
      "outputs": [],
      "stateMutability": "nonpayable",
      "type": "function"
    },
    {
      "inputs": [
        {
          "internalType": "bytes4",
          "name": "interfaceId",
          "type": "bytes4"
        }
      ],
      "name": "supportsInterface",
      "outputs": [
        {
          "internalType": "bool",
          "name": "",
          "type": "bool"
        }
      ],
      "stateMutability": "view",
      "type": "function"
    },
    {
      "inputs": [],
      "name": "symbol",
      "outputs": [
        {
          "internalType": "string",
          "name": "",
          "type": "string"
        }
      ],
      "stateMutability": "view",
      "type": "function"
    },
    {
      "inputs": [
        {
          "internalType": "uint256",
          "name": "tokenId",
          "type": "uint256"
        }
      ],
      "name": "tokenURI",
      "outputs": [
        {
          "internalType": "string",
          "name": "",
          "type": "string"
        }
      ],
      "stateMutability": "view",
      "type": "function"
    },
    {
      "inputs": [],
      "name": "totalSupply",
      "outputs": [
        {
          "internalType": "uint256",
          "name": "",
          "type": "uint256"
        }
      ],
      "stateMutability": "view",
      "type": "function"
    },
    {
      "inputs": [
        {
          "internalType": "address",
          "name": "from",
          "type": "address"
        },
        {
          "internalType": "address",
          "name": "to",
          "type": "address"
        },
        {
          "internalType": "uint256",
          "name": "tokenId",
          "type": "uint256"
        }
      ],
      "name": "transferFrom",
      "outputs": [],
      "stateMutability": "nonpayable",
      "type": "function"
    },
    {
      "inputs": [
        {
          "internalType": "address",
          "name": "newOwner",
          "type": "address"
        }
      ],
      "name": "transferOwnership",
      "outputs": [],
      "stateMutability": "nonpayable",
      "type": "function"
    }
  ],
  "bytecode": "0x60806040523480156200001157600080fd5b50336040518060400160405280601381526020017f446565646973636f2046726565204361726473000000000000000000000000008152506040518060400160405280600381526020017f444643000000000000000000000000000000000000000000000000000000000081525081600090816200009091906200049d565b508060019081620000a291906200049d565b505050600073ffffffffffffffffffffffffffffffffffffffff168173ffffffffffffffffffffffffffffffffffffffff16036200011a5760006040517f1e4fbdf7000000000000000000000000000000000000000000000000000000008152600401620001119190620005c9565b60405180910390fd5b6200012b816200015d60201b60201c565b5060405180606001604052806030815260200162002d1060309139600890816200015691906200049d565b50620005e6565b6000600660009054906101000a900473ffffffffffffffffffffffffffffffffffffffff16905081600660006101000a81548173ffffffffffffffffffffffffffffffffffffffff021916908373ffffffffffffffffffffffffffffffffffffffff1602179055508173ffffffffffffffffffffffffffffffffffffffff168173ffffffffffffffffffffffffffffffffffffffff167f8be0079c531659141344cd1fd0a4f28419497f9722a3daafe3b4186f6b6457e060405160405180910390a35050565b600081519050919050565b7f4e487b7100000000000000000000000000000000000000000000000000000000600052604160045260246000fd5b7f4e487b7100000000000000000000000000000000000000000000000000000000600052602260045260246000fd5b60006002820490506001821680620002a557607f821691505b602082108103620002bb57620002ba6200025d565b5b50919050565b60008190508160005260206000209050919050565b60006020601f8301049050919050565b600082821b905092915050565b600060088302620003257fffffffffffffffffffffffffffffffffffffffffffffffffffffffffffffffff82620002e6565b620003318683620002e6565b95508019841693508086168417925050509392505050565b6000819050919050565b6000819050919050565b60006200037e62000378620003728462000349565b62000353565b62000349565b9050919050565b6000819050919050565b6200039a836200035d565b620003b2620003a98262000385565b848454620002f3565b825550505050565b600090565b620003c9620003ba565b620003d68184846200038f565b505050565b5b81811015620003fe57620003f2600082620003bf565b600181019050620003dc565b5050565b601f8211156200044d576200041781620002c1565b6200042284620002d6565b8101602085101562000432578190505b6200044a6200044185620002d6565b830182620003db565b50505b505050565b600082821c905092915050565b6000620004726000198460080262000452565b1980831691505092915050565b60006200048d83836200045f565b9150826002028217905092915050565b620004a88262000223565b67ffffffffffffffff811115620004c457620004c36200022e565b5b620004d082546200028c565b620004dd82828562000402565b600060209050601f83116001811462000515576000841562000500578287015190505b6200050c85826200047f565b8655506200057c565b601f1984166200052586620002c1565b60005b828110156200054f5784890151825560018201915060208501945060208101905062000528565b868310156200056f57848901516200056b601f8916826200045f565b8355505b6001600288020188555050505b505050505050565b600073ffffffffffffffffffffffffffffffffffffffff82169050919050565b6000620005b18262000584565b9050919050565b620005c381620005a4565b82525050565b6000602082019050620005e06000830184620005b8565b92915050565b61271a80620005f66000396000f3fe608060405234801561001057600080fd5b50600436106101215760003560e01c806370a08231116100ad578063a22cb46511610071578063a22cb46514610308578063b88d4fde14610324578063c87b56dd14610340578063e985e9c514610370578063f2fde38b146103a057610121565b806370a0823114610262578063715018a6146102925780638da5cb5b1461029c578063952ea94f146102ba57806395d89b41146102ea57610121565b806318160ddd116100f457806318160ddd146101c057806323b872dd146101de57806342842e0e146101fa57806355f804b3146102165780636352211e1461023257610121565b806301ffc9a71461012657806306fdde0314610156578063081812fc14610174578063095ea7b3146101a4575b600080fd5b610140600480360381019061013b9190611a76565b6103bc565b60405161014d9190611abe565b60405180910390f35b61015e61049e565b60405161016b9190611b69565b60405180910390f35b61018e60048036038101906101899190611bc1565b610530565b60405161019b9190611c2f565b60405180910390f35b6101be60048036038101906101b99190611c76565b61054c565b005b6101c8610562565b6040516101d59190611cc5565b60405180910390f35b6101f860048036038101906101f39190611ce0565b61056c565b005b610214600480360381019061020f9190611ce0565b61066e565b005b610230600480360381019061022b9190611e68565b61068e565b005b61024c60048036038101906102479190611bc1565b6106a9565b6040516102599190611c2f565b60405180910390f35b61027c60048036038101906102779190611eb1565b6106bb565b6040516102899190611cc5565b60405180910390f35b61029a610775565b005b6102a4610789565b6040516102b19190611c2f565b60405180910390f35b6102d460048036038101906102cf9190611c76565b6107b3565b6040516102e19190611f9c565b60405180910390f35b6102f2610875565b6040516102ff9190611b69565b60405180910390f35b610322600480360381019061031d9190611fea565b610907565b005b61033e600480360381019061033991906120cb565b61091d565b005b61035a60048036038101906103559190611bc1565b610942565b6040516103679190611b69565b60405180910390f35b61038a6004803603810190610385919061214e565b6109ab565b6040516103979190611abe565b60405180910390f35b6103ba60048036038101906103b59190611eb1565b610a3f565b005b60007f80ac58cd000000000000000000000000000000000000000000000000000000007bffffffffffffffffffffffffffffffffffffffffffffffffffffffff1916827bffffffffffffffffffffffffffffffffffffffffffffffffffffffff1916148061048757507f5b5e139f000000000000000000000000000000000000000000000000000000007bffffffffffffffffffffffffffffffffffffffffffffffffffffffff1916827bffffffffffffffffffffffffffffffffffffffffffffffffffffffff1916145b80610497575061049682610ac5565b5b9050919050565b6060600080546104ad906121bd565b80601f01602080910402602001604051908101604052809291908181526020018280546104d9906121bd565b80156105265780601f106104fb57610100808354040283529160200191610526565b820191906000526020600020905b81548152906001019060200180831161050957829003601f168201915b5050505050905090565b600061053b82610b2f565b5061054582610bb7565b9050919050565b61055e8282610559610bf4565b610bfc565b5050565b6000600754905090565b600073ffffffffffffffffffffffffffffffffffffffff168273ffffffffffffffffffffffffffffffffffffffff16036105de5760006040517f64a0ae920000000000000000000000000000000000000000000000000000000081526004016105d59190611c2f565b60405180910390fd5b60006105f283836105ed610bf4565b610c0e565b90508373ffffffffffffffffffffffffffffffffffffffff168173ffffffffffffffffffffffffffffffffffffffff1614610668578382826040517f64283d7b00000000000000000000000000000000000000000000000000000000815260040161065f939291906121ee565b60405180910390fd5b50505050565b6106898383836040518060200160405280600081525061091d565b505050565b610696610e28565b80600890816106a591906123d1565b5050565b60006106b482610b2f565b9050919050565b60008073ffffffffffffffffffffffffffffffffffffffff168273ffffffffffffffffffffffffffffffffffffffff160361072e5760006040517f89c62b640000000000000000000000000000000000000000000000000000000081526004016107259190611c2f565b60405180910390fd5b600360008373ffffffffffffffffffffffffffffffffffffffff1673ffffffffffffffffffffffffffffffffffffffff168152602001908152602001600020549050919050565b61077d610e28565b6107876000610eaf565b565b6000600660009054906101000a900473ffffffffffffffffffffffffffffffffffffffff16905090565b606060008267ffffffffffffffff8111156107d1576107d0611d3d565b5b6040519080825280602002602001820160405280156107ff5781602001602082028036833780820191505090505b50905060005b8381101561086a5760076000815480929190610820906124d2565b9190505550600060075490506108368682610f75565b8083838151811061084a5761084961251a565b5b602002602001018181525050508080610862906124d2565b915050610805565b508091505092915050565b606060018054610884906121bd565b80601f01602080910402602001604051908101604052809291908181526020018280546108b0906121bd565b80156108fd5780601f106108d2576101008083540402835291602001916108fd565b820191906000526020600020905b8154815290600101906020018083116108e057829003601f168201915b5050505050905090565b610919610912610bf4565b8383610f93565b5050565b61092884848461056c565b61093c610933610bf4565b85858585611102565b50505050565b606061094d82610b2f565b5060006109586112b3565b9050600081511161097857604051806020016040528060008152506109a3565b8061098284611345565b604051602001610993929190612585565b6040516020818303038152906040525b915050919050565b6000600560008473ffffffffffffffffffffffffffffffffffffffff1673ffffffffffffffffffffffffffffffffffffffff16815260200190815260200160002060008373ffffffffffffffffffffffffffffffffffffffff1673ffffffffffffffffffffffffffffffffffffffff16815260200190815260200160002060009054906101000a900460ff16905092915050565b610a47610e28565b600073ffffffffffffffffffffffffffffffffffffffff168173ffffffffffffffffffffffffffffffffffffffff1603610ab95760006040517f1e4fbdf7000000000000000000000000000000000000000000000000000000008152600401610ab09190611c2f565b60405180910390fd5b610ac281610eaf565b50565b60007f01ffc9a7000000000000000000000000000000000000000000000000000000007bffffffffffffffffffffffffffffffffffffffffffffffffffffffff1916827bffffffffffffffffffffffffffffffffffffffffffffffffffffffff1916149050919050565b600080610b3b83611413565b9050600073ffffffffffffffffffffffffffffffffffffffff168173ffffffffffffffffffffffffffffffffffffffff1603610bae57826040517f7e273289000000000000000000000000000000000000000000000000000000008152600401610ba59190611cc5565b60405180910390fd5b80915050919050565b60006004600083815260200190815260200160002060009054906101000a900473ffffffffffffffffffffffffffffffffffffffff169050919050565b600033905090565b610c098383836001611450565b505050565b600080610c1a84611413565b9050600073ffffffffffffffffffffffffffffffffffffffff168373ffffffffffffffffffffffffffffffffffffffff1614610c5c57610c5b818486611615565b5b600073ffffffffffffffffffffffffffffffffffffffff168173ffffffffffffffffffffffffffffffffffffffff1614610ced57610c9e600085600080611450565b6001600360008373ffffffffffffffffffffffffffffffffffffffff1673ffffffffffffffffffffffffffffffffffffffff168152602001908152602001600020600082825403925050819055505b600073ffffffffffffffffffffffffffffffffffffffff168573ffffffffffffffffffffffffffffffffffffffff1614610d70576001600360008773ffffffffffffffffffffffffffffffffffffffff1673ffffffffffffffffffffffffffffffffffffffff168152602001908152602001600020600082825401925050819055505b846002600086815260200190815260200160002060006101000a81548173ffffffffffffffffffffffffffffffffffffffff021916908373ffffffffffffffffffffffffffffffffffffffff160217905550838573ffffffffffffffffffffffffffffffffffffffff168273ffffffffffffffffffffffffffffffffffffffff167fddf252ad1be2c89b69c2b068fc378daa952ba7f163c4a11628f55a4df523b3ef60405160405180910390a4809150509392505050565b610e30610bf4565b73ffffffffffffffffffffffffffffffffffffffff16610e4e610789565b73ffffffffffffffffffffffffffffffffffffffff1614610ead57610e71610bf4565b6040517f118cdaa7000000000000000000000000000000000000000000000000000000008152600401610ea49190611c2f565b60405180910390fd5b565b6000600660009054906101000a900473ffffffffffffffffffffffffffffffffffffffff16905081600660006101000a81548173ffffffffffffffffffffffffffffffffffffffff021916908373ffffffffffffffffffffffffffffffffffffffff1602179055508173ffffffffffffffffffffffffffffffffffffffff168173ffffffffffffffffffffffffffffffffffffffff167f8be0079c531659141344cd1fd0a4f28419497f9722a3daafe3b4186f6b6457e060405160405180910390a35050565b610f8f8282604051806020016040528060008152506116d9565b5050565b600073ffffffffffffffffffffffffffffffffffffffff168273ffffffffffffffffffffffffffffffffffffffff160361100457816040517f5b08ba18000000000000000000000000000000000000000000000000000000008152600401610ffb9190611c2f565b60405180910390fd5b80600560008573ffffffffffffffffffffffffffffffffffffffff1673ffffffffffffffffffffffffffffffffffffffff16815260200190815260200160002060008473ffffffffffffffffffffffffffffffffffffffff1673ffffffffffffffffffffffffffffffffffffffff16815260200190815260200160002060006101000a81548160ff0219169083151502179055508173ffffffffffffffffffffffffffffffffffffffff168373ffffffffffffffffffffffffffffffffffffffff167f17307eab39ab6107e8899845ad3d59bd9653f200f220920489ca2b5937696c31836040516110f59190611abe565b60405180910390a3505050565b60008373ffffffffffffffffffffffffffffffffffffffff163b11156112ac578273ffffffffffffffffffffffffffffffffffffffff1663150b7a02868685856040518563ffffffff1660e01b815260040161116194939291906125fe565b6020604051808303816000875af192505050801561119d57506040513d601f19601f8201168201806040525081019061119a919061265f565b60015b611221573d80600081146111cd576040519150601f19603f3d011682016040523d82523d6000602084013e6111d2565b606091505b50600081510361121957836040517f64a0ae920000000000000000000000000000000000000000000000000000000081526004016112109190611c2f565b60405180910390fd5b805160208201fd5b63150b7a0260e01b7bffffffffffffffffffffffffffffffffffffffffffffffffffffffff1916817bffffffffffffffffffffffffffffffffffffffffffffffffffffffff1916146112aa57836040517f64a0ae920000000000000000000000000000000000000000000000000000000081526004016112a19190611c2f565b60405180910390fd5b505b5050505050565b6060600880546112c2906121bd565b80601f01602080910402602001604051908101604052809291908181526020018280546112ee906121bd565b801561133b5780601f106113105761010080835404028352916020019161133b565b820191906000526020600020905b81548152906001019060200180831161131e57829003601f168201915b5050505050905090565b606060006001611354846116fd565b01905060008167ffffffffffffffff81111561137357611372611d3d565b5b6040519080825280601f01601f1916602001820160405280156113a55781602001600182028036833780820191505090505b509050600082602083010190505b600115611408578080600190039150507f3031323334353637383961626364656600000000000000000000000000000000600a86061a8153600a85816113fc576113fb61268c565b5b049450600085036113b3575b819350505050919050565b60006002600083815260200190815260200160002060009054906101000a900473ffffffffffffffffffffffffffffffffffffffff169050919050565b80806114895750600073ffffffffffffffffffffffffffffffffffffffff168273ffffffffffffffffffffffffffffffffffffffff1614155b156115bd57600061149984610b2f565b9050600073ffffffffffffffffffffffffffffffffffffffff168373ffffffffffffffffffffffffffffffffffffffff161415801561150457508273ffffffffffffffffffffffffffffffffffffffff168173ffffffffffffffffffffffffffffffffffffffff1614155b8015611517575061151581846109ab565b155b1561155957826040517fa9fbf51f0000000000000000000000000000000000000000000000000000000081526004016115509190611c2f565b60405180910390fd5b81156115bb57838573ffffffffffffffffffffffffffffffffffffffff168273ffffffffffffffffffffffffffffffffffffffff167f8c5be1e5ebec7d5bd14f71427d1e84f3dd0314c0f7b2291e5b200ac8c7c3b92560405160405180910390a45b505b836004600085815260200190815260200160002060006101000a81548173ffffffffffffffffffffffffffffffffffffffff021916908373ffffffffffffffffffffffffffffffffffffffff16021790555050505050565b611620838383611850565b6116d457600073ffffffffffffffffffffffffffffffffffffffff168373ffffffffffffffffffffffffffffffffffffffff160361169557806040517f7e27328900000000000000000000000000000000000000000000000000000000815260040161168c9190611cc5565b60405180910390fd5b81816040517f177e802f0000000000000000000000000000000000000000000000000000000081526004016116cb9291906126bb565b60405180910390fd5b505050565b6116e38383611911565b6116f86116ee610bf4565b6000858585611102565b505050565b600080600090507a184f03e93ff9f4daa797ed6e38ed64bf6a1f010000000000000000831061175b577a184f03e93ff9f4daa797ed6e38ed64bf6a1f01000000000000000083816117515761175061268c565b5b0492506040810190505b6d04ee2d6d415b85acef81000000008310611798576d04ee2d6d415b85acef8100000000838161178e5761178d61268c565b5b0492506020810190505b662386f26fc1000083106117c757662386f26fc1000083816117bd576117bc61268c565b5b0492506010810190505b6305f5e10083106117f0576305f5e10083816117e6576117e561268c565b5b0492506008810190505b612710831061181557612710838161180b5761180a61268c565b5b0492506004810190505b60648310611838576064838161182e5761182d61268c565b5b0492506002810190505b600a8310611847576001810190505b80915050919050565b60008073ffffffffffffffffffffffffffffffffffffffff168373ffffffffffffffffffffffffffffffffffffffff161415801561190857508273ffffffffffffffffffffffffffffffffffffffff168473ffffffffffffffffffffffffffffffffffffffff1614806118c957506118c884846109ab565b5b8061190757508273ffffffffffffffffffffffffffffffffffffffff166118ef83610bb7565b73ffffffffffffffffffffffffffffffffffffffff16145b5b90509392505050565b600073ffffffffffffffffffffffffffffffffffffffff168273ffffffffffffffffffffffffffffffffffffffff16036119835760006040517f64a0ae9200000000000000000000000000000000000000000000000000000000815260040161197a9190611c2f565b60405180910390fd5b600061199183836000610c0e565b9050600073ffffffffffffffffffffffffffffffffffffffff168173ffffffffffffffffffffffffffffffffffffffff1614611a055760006040517f73c6ac6e0000000000000000000000000000000000000000000000000000000081526004016119fc9190611c2f565b60405180910390fd5b505050565b6000604051905090565b600080fd5b600080fd5b60007fffffffff0000000000000000000000000000000000000000000000000000000082169050919050565b611a5381611a1e565b8114611a5e57600080fd5b50565b600081359050611a7081611a4a565b92915050565b600060208284031215611a8c57611a8b611a14565b5b6000611a9a84828501611a61565b91505092915050565b60008115159050919050565b611ab881611aa3565b82525050565b6000602082019050611ad36000830184611aaf565b92915050565b600081519050919050565b600082825260208201905092915050565b60005b83811015611b13578082015181840152602081019050611af8565b60008484015250505050565b6000601f19601f8301169050919050565b6000611b3b82611ad9565b611b458185611ae4565b9350611b55818560208601611af5565b611b5e81611b1f565b840191505092915050565b60006020820190508181036000830152611b838184611b30565b905092915050565b6000819050919050565b611b9e81611b8b565b8114611ba957600080fd5b50565b600081359050611bbb81611b95565b92915050565b600060208284031215611bd757611bd6611a14565b5b6000611be584828501611bac565b91505092915050565b600073ffffffffffffffffffffffffffffffffffffffff82169050919050565b6000611c1982611bee565b9050919050565b611c2981611c0e565b82525050565b6000602082019050611c446000830184611c20565b92915050565b611c5381611c0e565b8114611c5e57600080fd5b50565b600081359050611c7081611c4a565b92915050565b60008060408385031215611c8d57611c8c611a14565b5b6000611c9b85828601611c61565b9250506020611cac85828601611bac565b9150509250929050565b611cbf81611b8b565b82525050565b6000602082019050611cda6000830184611cb6565b92915050565b600080600060608486031215611cf957611cf8611a14565b5b6000611d0786828701611c61565b9350506020611d1886828701611c61565b9250506040611d2986828701611bac565b9150509250925092565b600080fd5b600080fd5b7f4e487b7100000000000000000000000000000000000000000000000000000000600052604160045260246000fd5b611d7582611b1f565b810181811067ffffffffffffffff82111715611d9457611d93611d3d565b5b80604052505050565b6000611da7611a0a565b9050611db38282611d6c565b919050565b600067ffffffffffffffff821115611dd357611dd2611d3d565b5b611ddc82611b1f565b9050602081019050919050565b82818337600083830152505050565b6000611e0b611e0684611db8565b611d9d565b905082815260208101848484011115611e2757611e26611d38565b5b611e32848285611de9565b509392505050565b600082601f830112611e4f57611e4e611d33565b5b8135611e5f848260208601611df8565b91505092915050565b600060208284031215611e7e57611e7d611a14565b5b600082013567ffffffffffffffff811115611e9c57611e9b611a19565b5b611ea884828501611e3a565b91505092915050565b600060208284031215611ec757611ec6611a14565b5b6000611ed584828501611c61565b91505092915050565b600081519050919050565b600082825260208201905092915050565b6000819050602082019050919050565b611f1381611b8b565b82525050565b6000611f258383611f0a565b60208301905092915050565b6000602082019050919050565b6000611f4982611ede565b611f538185611ee9565b9350611f5e83611efa565b8060005b83811015611f8f578151611f768882611f19565b9750611f8183611f31565b925050600181019050611f62565b5085935050505092915050565b60006020820190508181036000830152611fb68184611f3e565b905092915050565b611fc781611aa3565b8114611fd257600080fd5b50565b600081359050611fe481611fbe565b92915050565b6000806040838503121561200157612000611a14565b5b600061200f85828601611c61565b925050602061202085828601611fd5565b9150509250929050565b600067ffffffffffffffff82111561204557612044611d3d565b5b61204e82611b1f565b9050602081019050919050565b600061206e6120698461202a565b611d9d565b90508281526020810184848401111561208a57612089611d38565b5b612095848285611de9565b509392505050565b600082601f8301126120b2576120b1611d33565b5b81356120c284826020860161205b565b91505092915050565b600080600080608085870312156120e5576120e4611a14565b5b60006120f387828801611c61565b945050602061210487828801611c61565b935050604061211587828801611bac565b925050606085013567ffffffffffffffff81111561213657612135611a19565b5b6121428782880161209d565b91505092959194509250565b6000806040838503121561216557612164611a14565b5b600061217385828601611c61565b925050602061218485828601611c61565b9150509250929050565b7f4e487b7100000000000000000000000000000000000000000000000000000000600052602260045260246000fd5b600060028204905060018216806121d557607f821691505b6020821081036121e8576121e761218e565b5b50919050565b60006060820190506122036000830186611c20565b6122106020830185611cb6565b61221d6040830184611c20565b949350505050565b60008190508160005260206000209050919050565b60006020601f8301049050919050565b600082821b905092915050565b6000600883026122877fffffffffffffffffffffffffffffffffffffffffffffffffffffffffffffffff8261224a565b612291868361224a565b95508019841693508086168417925050509392505050565b6000819050919050565b60006122ce6122c96122c484611b8b565b6122a9565b611b8b565b9050919050565b6000819050919050565b6122e8836122b3565b6122fc6122f4826122d5565b848454612257565b825550505050565b600090565b612311612304565b61231c8184846122df565b505050565b5b8181101561234057612335600082612309565b600181019050612322565b5050565b601f8211156123855761235681612225565b61235f8461223a565b8101602085101561236e578190505b61238261237a8561223a565b830182612321565b50505b505050565b600082821c905092915050565b60006123a86000198460080261238a565b1980831691505092915050565b60006123c18383612397565b9150826002028217905092915050565b6123da82611ad9565b67ffffffffffffffff8111156123f3576123f2611d3d565b5b6123fd82546121bd565b612408828285612344565b600060209050601f83116001811461243b5760008415612429578287015190505b61243385826123b5565b86555061249b565b601f19841661244986612225565b60005b828110156124715784890151825560018201915060208501945060208101905061244c565b8683101561248e578489015161248a601f891682612397565b8355505b6001600288020188555050505b505050505050565b7f4e487b7100000000000000000000000000000000000000000000000000000000600052601160045260246000fd5b60006124dd82611b8b565b91507fffffffffffffffffffffffffffffffffffffffffffffffffffffffffffffffff820361250f5761250e6124a3565b5b600182019050919050565b7f4e487b7100000000000000000000000000000000000000000000000000000000600052603260045260246000fd5b600081905092915050565b600061255f82611ad9565b6125698185612549565b9350612579818560208601611af5565b80840191505092915050565b60006125918285612554565b915061259d8284612554565b91508190509392505050565b600081519050919050565b600082825260208201905092915050565b60006125d0826125a9565b6125da81856125b4565b93506125ea818560208601611af5565b6125f381611b1f565b840191505092915050565b60006080820190506126136000830187611c20565b6126206020830186611c20565b61262d6040830185611cb6565b818103606083015261263f81846125c5565b905095945050505050565b60008151905061265981611a4a565b92915050565b60006020828403121561267557612674611a14565b5b60006126838482850161264a565b91505092915050565b7f4e487b7100000000000000000000000000000000000000000000000000000000600052601260045260246000fd5b60006040820190506126d06000830185611c20565b6126dd6020830184611cb6565b939250505056fea2646970667358221220fa6a4144b669ea64fb383de4c44a15e3f5c8c17d3eb1bd7e9880d3881028e20164736f6c6343000814003368747470733a2f2f646565646973636f2d6d696e696b69742d6170702e76657263656c2e6170702f6170692f6e66742f",
  "linkReferences": {},
  "deployedLinkReferences": {}
}